:020000040800F2
:10000000F01D002045010008893300080F02000898
:100010005101000829090008E53B00080000000024
:100020000000000000000000000000005701000870
:100030008909000800000000970100081135000838
:100040005F0100085F0100085F0100085F01000810
:100050005F0100085F0100085F0100085F01000800
:100060005F0100085F0100085F0100082D0900081A
:100070003D0900085F0100085F0100085F010008FA
:100080005F0100085F0100085F0100085F010008D0
:100090005F0100085F0100085F0100085F010008C0
:1000A0005F0100085F0100085F0100085F010008B0
:1000B0005F0100085F0100085F0100085F010008A0
:1000C0005F0100085F0100085F0100085F01000890
:1000D0005F0100085F0100085F0100087D3B000828
:1000E0005F0100085F0100085F0100085F01000870
:1000F0005F0100085F0100085F0100085F01000860
:100100005F0100085F0100085F0100085F0100084F
:100110005F0100085F0100085F0100085F0100083F
:100120005F0100085F0100084D0900085F01000839
:10013000DFF80CD000F008FA00480047CD080008AE
:10014000F01D00200648804706480047FEE7FEE70E
:10015000FEE7FEE7FEE7FEE7FEE7FEE7FEE7FEE777
:100160004936000831010008EFF3108072B670477D
:1001700080F310887047334A1368012B04D04FF086
:1001800001031360304A1060304A116030484FF06C
:10019000805101607047EFF3108272B62948016800
:1001A00091B14FF0000101602748016829B1EFF3D8
:1001B000098121E9F00F0068016024490968096894
:1001C000B1E8F00F81F3098882F310884EF0040E35
:1001D00070471E4908601C494FF00000086019492B
:1001E0004FF0010008601B484FF47F01D0F8002059
:1001F00041EA0201016016484FF080510160164843
:100200000068006880F3088861B662B670471EF027
:10021000040F0CBFEFF30880EFF3098020E9F00F23
:1002200040F804ED1EF0040F0CBF80F3088880F343
:10023000098800B505F004FA5DF804EB4EF0040EF1
:1002400070470000980000209000002094000020DB
:1002500004ED00E020ED00E008ED00E040EA0103DD
:100260009B0703D009E008C9121F08C0042AFAD26C
:1002700003E011F8013B00F8013B521EF9D2704730
:10028000D2B201E000F8012B491EFBD270470022D8
:10029000F6E710B513460A4604461946FFF7F0FF85
:1002A000204610BD421E12F8013F002BFBD111F871
:1002B000013B02F8013B002BF9D1704710B5044611
:1002C00004E00B7800F8013B03B1491C521EF8D240
:1002D000204610BD421C10F8011B0029FBD1801ADA
:1002E0007047034611F8012B00F8012B002AF9D1C1
:1002F0001846704730B505460020034600E05B1CF9
:10030000934205D2EC5CC85C201A01D1002CF6D1D6
:1003100030BD00000FB400B58DB010A909900B904E
:1003200000914FF0FF300A9000200C900548069095
:10033000054807906A4609A80F9900F0D7F80DB054
:100340005DF814FB09050008270500082DE9FF5F8B
:100350001D464FF0FF3BD5E9014691465F464FF001
:100360000008A9697F1C01988847296A8246884746
:100370000028F6D1BAF1FF3F0CD024F4C064002E5F
:1003800019DD600614D5BAF12B0F09D0BAF12D0F83
:100390000ED103E0584604B0BDE8F09F44F48064F9
:1003A000A9697F1C01988847761E8246002E02DDCF
:1003B000BAF1300F03D0B9F1000F26D032E0A969AD
:1003C000761E44F400747F1C019888478246002EF4
:1003D00005DDBAF1780F06D0BAF1580F03D0B9F1A4
:1003E000000F10D01EE0B9F1000F02D0B9F1100FCC
:1003F00018D1A969761E24F400747F1C01988847DF
:100400008246102002E0082000E00A20814609E030
:1004100008FB0908A969761E44F400747F1C019842
:1004200088478246002E05DD4946504600F04AF8CE
:100430000028EDDAE96901988847A00502D46FF039
:100440000100A8E7E00725D1600613D5600502D5B5
:10045000C8F1000000E0404629680A1D2A600968CA
:10046000220501D5087015E0220701D5088011E0AA
:1004700008600FE02868011D29600068210502D589
:1004800080F8008006E0210702D5A0F8008001E096
:10049000C0F8008038467EE730B50B4601460020A4
:1004A0002022012409E021FA02F59D4205D303FA36
:1004B00002F5491B04FA02F52844151EA2F10102B7
:1004C000F1DC30BD3A2800D2303820F02002412A39
:1004D00001D3A2F13700884201D34FF0FF307047BB
:1004E000026811441378016018467047D1600449CE
:1004F00051610449116200211161114600F03CB8BC
:10050000E10400086D050008426842B1016811F875
:10051000013B23B1521EC0E9001218467047012169
:10052000C160881E704742685AB1C368016843B908
:1005300083688B4205D0491E521CC0E9001200207E
:1005400070474FF0FF307047064C074D06E0E068FB
:1005500040F0010394E8070098471034AC42F6D30A
:10056000FFF7EAFDF470000814710008C0B24FF400
:10057000F05100F097B900002DE9F34F8BB04FF028
:10058000000801F10C000C464FF0010B46460DF13E
:10059000080A01906269012101989047051E2DD03B
:1005A000252D2CD0216A8847C0B1626901210198AC
:1005B0009047216A88470028F7D1411E6269019857
:1005C000904700E0761CA1690B988847216A88470C
:1005D0000028F7D1E1690B988847DBE7A1690B9800
:1005E00088470746A84201D1761CD3E7E1690B98FA
:1005F00088477F1C02D1B8F1000F6FD046E1002779
:1006000062693D463946019890472A2804D16269BB
:100610000121019890470125DFF884926269012148
:1006200001989047A0F130010A290AD24F45E5DC34
:1006300007EB870100EB4107303FDFD445F01005A1
:10064000ECE7E90601D46FF000476C280AD04C288B
:1006500014D0682815D06A280DD074281CD07A28A8
:100660001AD01DE062690121019890476C2802D0E0
:1006700045F0040514E045F002050DE045F02005C5
:100680000AE06269012101989047682802D045F08C
:10069000080505E045F4006562690121019890476D
:1006A000C4E9015765283DD019DC58287AD00CDC04
:1006B000452837D004DC252826D0412831D131E027
:1006C00046282FD047282CD12CE05B2877D06128F2
:1006D00028D063287CD0642823D15AE0D0E06F284A
:1006E00048D008DC66281DD067281BD0692821D097
:1006F0006E2816D127E0702845D0732868D0752859
:1007000047D078280DD14DE0A1690B988847054660
:1007100025283FF469AFE1690B9888476D1C3FF4C9
:100720006AAFB3E023466A466FF001000B99AFF35E
:1007300000809EE045F040006060A80723464FF02F
:10074000000236D43EE0E8077FF447AF2068011D81
:1007500021600068290501D506701BE7290701D52E
:10076000068017E7A90703D5F117C0E9006111E773
:1007700006600FE745F040006060A80723464FF091
:10078000080216D41EE040F60E0125EA0100606062
:1007900016E045F040006060A80723464FF00A02CB
:1007A00007D40FE045F040006060A80708D5234655
:1007B00010226FF001000B99AFF3008059E007E0C1
:1007C000234610226FF001000B99FFF7BFFD50E0A8
:1007D0004FF000094F464B46632802D05B2806D0F5
:1007E00040E0E80601D40120A06001273AE06269F8
:1007F0000121019890475E2805D14FF001096269F7
:10080000494601989047216939B900210A46534663
:1008100043F82120491C0829FADBB0B3216969B9E2
:10082000C11700EBD16253110AEB830122F01F02C2
:10083000821A01200B68904003430B60626901211A
:10084000019890475D28E8D1B9F1000F09D0002048
:10085000514651F82020D24341F82020401C08285E
:10086000F7DB02AB224600976FF001000B99AFF364
:10087000008000280CDA401C08D1BBF1000F05D025
:100880004FF0FF300DB0BDE8F08FFFE74046F9E7CD
:10089000E90701D108F1010806444FF0000B79E6A1
:1008A000CCCCCC0C7F2801D9002208E0064A02EB10
:1008B0005002C007127800D1120902F00F02012085
:1008C0009040084070470000C86F000810B506F05F
:1008D0001BF8002010BD70B5044600252068806814
:1008E00000F00100F0B12068806820F0010021686C
:1008F000886000F017FE05460EE000F013FE401B76
:10090000022809D9A06A40F01000A062E06A40F015
:100910000100E062012070BD2068806800F00100E5
:100920000028EAD10020F6E700BFFEE710B5024834
:1009300000F0E8F910BD0000D000002010B502481A
:1009400000F0E0F910BD00006C01002010B5024875
:1009500000F0D8F910BD0000E003002030B590F899
:1009600040500124AC40C56B6C600468636044680F
:10097000102C04D10468A2600468E16003E00468FC
:10098000A1600468E26030BD7047704710B5102266
:1009900009490A4805F035F900231A4608A10B4811
:1009A00005F008FA0A480068C06840F020000849CD
:1009B0000968C86010BD0000240400203404002031
:1009C0007368656C6C5F7278000000004004002062
:1009D000A003002038B5024600230020009000BF8D
:1009E00092F82400012801D1022038BD012082F8AC
:1009F000240000BF4868072812D21068406B0C79A9
:100A0000641E04EB84051F24AC40A0430D796D1EC9
:100A100005EB85050C68AC4020431468606327E053
:100A200048680D2812D21068006B0C79E41F04EBA3
:100A300084051F24AC40A0430D79ED1F05EB85050F
:100A40000C68AC4020431468206311E01068C06A51
:100A50000C790D3C04EB84051F24AC40A0430D79B8
:100A60000D3D05EB85050C68AC4020431468E06241
:100A700008680A2812D31068C0680C780A3C04EB96
:100A800044050724AC40A0430D780A3D05EB45051D
:100A90008C68AC4020431468E0600FE01068006987
:100AA0000C7804EB44050724AC40A0430D7805EB1B
:100AB00045058C68AC402043146820610868102804
:100AC00002D00868112827D1174C1068A0421ED107
:100AD0001068806800F40000F0B91068806840F485
:100AE00000001468A0600868102815D10F4800683D
:100AF0000F4CB0FBF4F000EB80004000009002E0EF
:100B00000098401E009000980028F9D104E0906AF7
:100B100040F020009062012300BF002082F82400F2
:100B200000BF184661E70000002401400C000020CF
:100B300040420F002DE9F041044600270025002621
:100B4000A84614B90120BDE8F081A06810B1207D4D
:100B500000B100BFA06A30B90020E06284F8240030
:100B6000204600F097F82046FFF7B5FE0746A06A3A
:100B700000F01000002873D1002F7ED1A06A20F46D
:100B8000885040F00200A0623F4AD4E90001904240
:100B900008D1E069B0F5402F02D14FF4002002E007
:100BA000E06900E0E0690143207B41EA4000064340
:100BB000A068B0F5807F02D0A068012802D14FF470
:100BC000807000E000200543207D012811D1207BAA
:100BD00038B9A069401E4FF4006141EA4030054336
:100BE00007E0A06A40F02000A062E06A40F0010047
:100BF000E0622068406820F469402843216848602A
:100C00002068806821490840304321688860A068D6
:100C1000B0F5807F02D0A068012802D14FF4807027
:100C200000E00020B0F5807F03D1208A401E4FEA0B
:100C300000582068C06A20F4700040EA080021686B
:100C4000C8622068806812490840B04209D100207B
:100C5000E062A06A20F0020040F00100A06211E012
:100C60000BE0A06A20F0020040F01000A062E06AF1
:100C700040F00100E062012704E0A06A40F01000AB
:100C8000A062012738465EE7003C0140FDF7E1FF26
:100C9000FE0E1FFF38B5044616492068884228D149
:100CA00000BF1548806940F4007013498861084608
:100CB000806900F40070009000BF00BF0F48104929
:100CC00008600020486000210D4881608021C160DB
:100CD000490001618900416100218161C16100F029
:100CE000DDF908B1FFF751FE00BF054820624462FC
:100CF00000BF38BD0024014000100240080002403F
:100D0000D000002070B50446E06B056820680668D6
:100D100094F84010042088402840002875D006F040
:100D200004000028FAD02068006800F0200028B9EC
:100D30002068006820F0040021680860D549206818
:100D4000884254D9D34978392068884201D1042097
:100D500049E0D04964392068884201D1402042E00E
:100D6000CC4950392068884201D100153BE0C9497F
:100D70003C392068884202D14FF4804033E0C549B5
:100D800028392068884202D14FF480202BE0C149E5
:100D900014392068884202D14FF4800023E0BD4915
:100DA0002068884201D1C0041DE0BB492068884208
:100DB00001D1042017E0B84914312068884201D1DC
:100DC000402010E0B44928312068884201D1001544
:100DD00009E0B1493C312068884202D14FF480409B
:100DE00001E04FF48020AC49091F086054E0A94994
:100DF00078392068884201D104204AE0A549643945
:100E00002068884202D1402043E04CE0A14950399B
:100E10002068884201D100153BE09E493C3920689A
:100E2000884202D14FF4804033E09A492839206843
:100E3000884202D14FF480202BE096491439206873
:100E4000884202D14FF4800023E092492068884212
:100E500001D1C0041DE090492068884201D10420DE
:100E600017E08D4914312068884201D1402010E0FC
:100E7000894928312068884201D1001509E0864956
:100E80003C312068884202D14FF4804001E04FF4A9
:100E90008020804980394860E06A002802D02046DE
:100EA000E16A8847F4E094F8401002208840284026
:100EB000002871D006F002000028FAD020680068EF
:100EC00000F0200040B92068006820F00A00216886
:100ED0000860012084F821006E492068884254D9B6
:100EE0006C4978392068884201D1022049E069497B
:100EF00064392068884201D1202042E06549503998
:100F00002068884201D140153BE062493C392068A5
:100F1000884202D14FF4005033E05E4928392068FE
:100F2000884202D14FF400302BE05A49143920682E
:100F3000884202D14FF4001023E0564920688842CD
:100F400001D180041DE054492068884201D102206B
:100F500017E0514914312068884201D1202010E067
:100F60004D4928312068884201D1401509E04A499D
:100F70003C312068884202D14FF4005001E04FF428
:100F800000304549091F086054E04249783920681B
:100F9000884202D102204AE057E03E496439206885
:100FA000884201D1202042E03A49503920688842E5
:100FB00001D140153BE037493C392068884202D1D5
:100FC0004FF4005033E0334928392068884202D179
:100FD0004FF400302BE02F4914392068884202D1A9
:100FE0004FF4001023E02B492068884201D180048F
:100FF0001DE029492068884201D1022017E02649D6
:1010000014312068884201D1202010E02249283183
:101010002068884201D1401509E01F493C31206811
:10102000884202D14FF4005001E04FF400301949DA
:101030008039486000BF002084F8200000BFA06A0B
:1010400030B32046A16A884722E094F84010082077
:1010500088402840E0B106F00800C8B12068006868
:1010600020F00E002168086094F8401001208840AC
:10107000E16B48600120A06384F8210000BF0020DC
:1010800084F8200000BF206B10B12046216B8847F8
:1010900070BD0000800002400804024001460022AA
:1010A00009B9012070471E4B086898420BD21D4BAE
:1010B0000868C01A1423B0FBF3F0800008641948D4
:1010C0000838C8630AE0164B0868C01A1423B0FB3E
:1010D000F3F08000086412480838C863022081F8E1
:1010E00021000868026843F6F0708243D1E90103E9
:1010F0001843CB6818430B6918434B6918438B6935
:101100001843CB69184302430868026000208863D3
:10111000012081F82100002081F8200000BFC1E7F4
:1011200008040240080002402DE9F04104460D4643
:1011300016461F464FF0000800BF94F82000012813
:1011400002D10220BDE8F081012084F8200000BF18
:1011500094F8210001282CD1022084F821000020DD
:10116000A0632068006820F00100216808603B4609
:10117000324629462046FFF7F1FBE06A30B120688D
:10118000006840F00E00216808600BE020680068ED
:1011900020F00400216808602068006840F00A0020
:1011A000216808602068006840F00100216808603C
:1011B00006E000BF002084F8200000BF4FF00208C6
:1011C0004046BFE72DE9F847024600239C467BE1F5
:1011D0004FF0010808FA03F4D1F8008008EA04008F
:1011E000A0427DD1DFF8F4A2D1F80480A8EB0A096F
:1011F000D0453AD014DCB8F1030F50D009DCB8F177
:10120000000F31D0B8F1010F1CD0B8F1020F49D155
:1012100020E0B8F1110F18D0B8F1120F42D11EE042
:10122000B9F5881F25D006DCB9F5803F20D0B9F587
:10123000801F37D11AE0B9F5001F18D0B9F5041F87
:1012400030D117E0D1F80CC02DE0D1F80C8008F1B6
:10125000040C28E0D1F80C8008F1080C23E0D1F848
:101260000C8008F10C0C1EE000BF00BF00BF00BFE7
:1012700000BF00BFD1F80880B8F1000F02D14FF0D5
:10128000040C0BE0D1F80880B8F1010F03D14FF046
:10129000080C146102E04FF0080C546103E04FF0B9
:1012A000000C00E000BF00BFFF2801D8904601E01D
:1012B00002F104084646FF2802D84FEA830803E0FB
:1012C000A3F108084FEA88084746D6F800804FF097
:1012D0000F0909FA07F928EA09080CFA07F900E0EA
:1012E0007AE048EA0908C6F80080D1F8048008F0DE
:1012F0008058B8F1805F6FD100BFDFF8E481D8F883
:10130000188048F00108DFF8D891C9F81880C8465D
:10131000D8F8188008F00108CDF8008000BF00BFA1
:101320004FEAB9384FEA930958F829504FEA8378C1
:101330004FEA18794FF00F0808FA09F825EA08056E
:10134000DFF8A081424502D14FF0000824E0DFF829
:101350009881424502D14FF001081DE0DFF88C81F1
:10136000424502D14FF0020816E0DFF88481424581
:1013700002D14FF003080FE0DFF87881424502D137
:101380004FF0040808E0DFF87081424502D14FF0C9
:10139000050801E04FF006084FEA83794FEA197912
:1013A00008FA09F848EA0505DFF850814FEA930981
:1013B00048F82950D1F8048008F48038B8F5803F07
:1013C0000BD1DFF83C81D8F8008048EA0008DFF84C
:1013D0003091C9F800800AE075E0DFF82481D8F880
:1013E000008028EA0008DFF81891C9F80080D1F8D9
:1013F000048008F40038B8F5003F0ED1DFF8008112
:1014000008F10408D8F8008048EA0008DFF8F090F6
:1014100009F10409C9F800800DE0DFF8E48008F163
:101420000408D8F8008028EA0008DFF8D49009F111
:101430000409C9F80080D1F8048008F48018B8F5D0
:10144000801F0ED1DFF8B88008F10808D8F80080B6
:1014500048EA0008DFF8A89009F10809C9F80080F7
:101460000DE0DFF89C8008F10808D8F8008028EA31
:101470000008DFF88C9009F10809C9F80080D1F85C
:10148000048008F40018B8F5001F0ED1DFF8708052
:1014900008F10C08D8F8008048EA0008DFF86090EE
:1014A00009F10C09C9F800800DE0DFF8548008F15B
:1014B0000C08D8F8008028EA0008DFF8449009F109
:1014C0000C09C9F800805B1CD1F8008028FA03F8E9
:1014D000B8F1000F7FF47CAEBDE8F8870000111072
:1014E0000010024000080140000C014000100140C3
:1014F0000014014000180140001C01400800014098
:101500000004014010B5C26821EA020302EA0104A6
:1015100043EA0443036110BD0AB1016101E00B0419
:101520000361704701480068704700000000002018
:1015300010B50848006840F0100006490860032014
:1015400000F0ACF8002000F007F800F02BF80020C5
:1015500010BD00000020024070B504460E4800781F
:101560004FF47A71B1FBF0F00C490968B1FBF0F56A
:10157000284600F06BFD08B1012070BD102C07D289
:1015800000222146501E00F04BF80548046001E09F
:101590000120F2E70020F0E7080000200C00002006
:1015A0000400002008B500BF1348806940F0010026
:1015B000114988610846806900F00100009000BF71
:1015C00000BF00BF0846C06940F08050C8610846AF
:1015D000C06900F08050009000BF00BF052000F0FF
:1015E0005DF800BF0549486820F0E06040F00070F9
:1015F000486000BF08BD000000100240000001402C
:1016000001460846002809DB00F01F0301229A402A
:1016100043099B0003F1E023C3F8002100BF70479A
:101620002DE9F05F80460D461646002702F008FBC4
:10163000074639462A46334601F00700C0F1070A3B
:10164000BAF1040F02D94FF0040A01E0C0F1070A11
:10165000D14600F1040ABAF1070F02D24FF0000A96
:1016600001E0A0F1030AD4464FF0010A0AFA09FA90
:10167000AAF1010A0AEA020A0AFA0CFA4FF0010B6F
:101680000BFA0CFBABF1010B0BEA030B4AEA0B0460
:101690002146404602F0DCFABDE8F09F00BF00F0B2
:1016A0000702064B19684FF6FF031940044B0B4322
:1016B00043EA0221014B196000BF70470CED00E0C6
:1016C0000000FA05F8B5044600260025207800F051
:1016D000010000286BD000274348C06900F080500B
:1016E00070B900BF4048C06940F080503E49C861B1
:1016F0000846C06900F08050009000BF00BF01277D
:101700003A48006800F48070B0B93848006840F486
:10171000807036490860FFF705FF064606E0FFF7D0
:1017200001FF801B642801D90320F8BD2F48006801
:1017300000F480700028F2D02B48006A00F4407555
:101740002DB3A08800F44070A84220D02648006A3B
:1017500020F44075012026490860002008602248D6
:10176000056205F0010090B1FFF7DCFE064608E0D7
:10177000FFF7D8FE801B41F28831884201D903204F
:10178000D3E71948006A00F002000028F0D016489C
:10179000006A20F440706168084313490862012F11
:1017A00004D10846C06920F08050C86100BF20788D
:1017B00000F00200022807D10B48406820F44040A6
:1017C000A168084308494860207800F010001028FC
:1017D00007D10548406820F4800061690843024948
:1017E00048600020A1E700000010024000700040A7
:1017F0004004424270B504460D460CB9012070BD4C
:101800005A48006800F00700A8420ED25748006806
:1018100020F007002843554908600846006800F09A
:101820000700A84201D00120E9E7207800F002007B
:1018300002281DD1207800F00400042805D14C486E
:10184000406840F4E0604A494860207800F00800B1
:10185000082805D14648406840F460504449486033
:101860004348406820F0F000A168084340494860C0
:10187000207800F0010078B36068012806D13C4868
:10188000006800F4003090B90120B8E760680228D1
:1018900006D13748006800F0007040B90120AEE77B
:1018A0003348006800F0020008B90120A7E730487B
:1018B000406820F00300616808432D494860FFF745
:1018C00031FE064609E0FFF72DFE801B41F288310C
:1018D000884202D9032092E707E02548406800F0DB
:1018E0000C006168B0EB810FEDD12048006800F07A
:1018F0000700A8420ED91D48006820F007002843C1
:101900001A4908600846006800F00700A84201D0A4
:10191000012074E7207800F00400042807D114485F
:10192000406820F4E060E16808431149486020788D
:1019300000F00800082808D10D48406820F46050E5
:10194000216940EAC1000A49486000F03FF80849AF
:101950004968C1F30311074A515CC8400649086051
:1019600006480068FFF7F8FD002048E70020024025
:1019700000100240AA6D00080C00002004000020A6
:1019800001480068704700000C00002000B5FFF718
:10199000F7FF04494968C1F30221034A515CC8407A
:1019A00000BD000000100240BA6D000800B5FFF74E
:1019B000E7FF04494968C1F3C221034A515CC840AA
:1019C00000BD000000100240BA6D0008F0B585B0FF
:1019D0000FF26C0C9CE8E01001A8A0E8E0101CA538
:1019E0002D68009500210022002300240020194DBD
:1019F000696801F00C05F5B1042D02D0082D19D14C
:101A000001E0154819E001ADC1F38346AC5D01F476
:101A1000803555B10F4D6D68C5F340451DF8052063
:101A20000D4D6543B5FBF2F302E00C4D04FB05F3ED
:101A3000184602E000BF084800BF00BF05B0F0BD77
:101A400002030405060708090A0B0C0D0E0F1010FF
:101A5000010200000010024000127A0000093D005F
:101A6000F8B504460CB90120F8BD207800F001005B
:101A7000002878D0F848406800F00C0004280CD00A
:101A8000F548406800F00C00082811D1F248406881
:101A900000F48030B0F5803F0AD1EF48006800F4D0
:101AA000003000285FD0606800285CD10120DBE7AF
:101AB00000BF6068B0F5803F06D1E748006840F499
:101AC0008030E549086028E0606858B9E24800685D
:101AD00020F48030E04908600846006820F4802047
:101AE00008601AE06068B0F5A02F0BD1DA480068F2
:101AF00040F48020D84908600846006840F48030EF
:101B000008600AE0D448006820F48030D2490860B8
:101B10000846006820F48020086000BF606888B133
:101B2000FFF700FD054606E0FFF7FCFC401B6428BC
:101B300001D9032098E7C848006800F40030002865
:101B4000F2D010E0FFF7EEFC054606E0FFF7EAFCF6
:101B5000401B642801D9032086E7BF48006800F4D1
:101B600000300028F2D1207800F00200022857D17E
:101B7000B948406800F00C0050B1B748406800F028
:101B80000C00082818D1B448406800F4803098B997
:101B9000B148006800F0020020B12069012801D09E
:101BA000012061E7AC48006820F0F800616940EA74
:101BB000C100A949086033E02069E8B10120A749C4
:101BC0000860FFF7AFFC054606E0FFF7ABFC401BE3
:101BD000022801D9032047E79F48006800F002006F
:101BE0000028F2D09C48006820F0F800616940EAC3
:101BF000C1009949086013E0002098490860FFF788
:101C000091FC054606E0FFF78DFC401B022801D938
:101C1000032029E79048006800F002000028F2D174
:101C2000207800F0080008282DD1A069B8B1012063
:101C30008B490860FFF776FC054606E0FFF772FC6B
:101C4000401B022801D903200EE78348406A00F0B8
:101C500002000028F2D0012001F046FC13E0002031
:101C60007F490860FFF75EFC054606E0FFF75AFC77
:101C7000401B022801D90320F6E67748406A00F0AD
:101C800002000028F2D1207800F00400042873D16B
:101C900000277148C06900F0805070B900BF6E48DD
:101CA000C06940F080506C49C8610846C06900F0C6
:101CB0008050009000BF00BF01276A48006800F410
:101CC0008070B0B96748006840F48070654908606A
:101CD000FFF728FC054606E0FFF724FC401B6428BC
:101CE00001D90320C0E65F48006800F48070002836
:101CF000F2D000BFE068012806D15748006A40F0E2
:101D000001005549086227E0E06858B95248006A66
:101D100020F00100504908620846006A20F00400E3
:101D2000086219E0E06805280BD14B48006A40F0D2
:101D30000400494908620846006A40F00100086250
:101D40000AE04548006A20F001004349086208465D
:101D5000006A20F00400086200BFE068A0B1FFF74D
:101D6000E1FB054609E0FFF7DDFB401B41F288314E
:101D7000884202D9032077E622E03748006A00F063
:101D800002000028EFD012E0FFF7CCFB054608E088
:101D9000FFF7C8FB401B41F28831884201D903207C
:101DA00062E62D48006A00F002000028F0D1012F01
:101DB00005D12948C06920F080502749C86100BF7B
:101DC000E069C8B32448406800F00C00082860D0DF
:101DD000E069022848D1002020490866FFF7A2FBED
:101DE000054606E0FFF79EFB401B022801D90320B1
:101DF0003AE61948006800F000700028F2D1206A25
:101E0000B0F5803F07D11448406820F40030A16845
:101E1000084311494860D4E9080108430E4949685C
:101E200021F4741108430C49486001200B490866ED
:101E3000FFF778FB054607E03DE0FFF773FB401B2B
:101E4000022801D903200FE60348006800F0007063
:101E50000028F2D02FE000000010024000004242B3
:101E60008004424200700040002014490866FFF7D9
:101E700059FB054606E0FFF755FB401B022801D938
:101E80000320F1E50E48006800F000700028F2D150
:101E900011E0E069012800D1E6E50948466806F44A
:101EA0008031206A814204D106F47011606A814257
:101EB00001D00120D8E50020D6E500000000424214
:101EC0000010024010B504460CB9012010BD606A34
:101ED00038B96068B0F5827F00D105E00021E1618A
:101EE00002E00021216161610021A16294F85100AA
:101EF00028B9002084F85000204600F043F8022062
:101F000084F851002068006820F0400021680860D3
:101F1000A08800F48270218901F404410843A1895A
:101F200001F400610843217C01F002010843217D96
:101F300001F001010843218B01F400710843217F66
:101F400001F0380108432021095D01F080010843B8
:101F5000218D01F400510843216808600421A06923
:101F600001EA1040216848602068C06920F40060E0
:101F70002168C86100206065012084F851000020BC
:101F8000A4E7000010B586B004460020029003903C
:101F9000049005902849206888424AD100BF27480C
:101FA000806940F48050254988610846806900F4C2
:101FB0008050019000BF00BF00BF0846806940F01C
:101FC000040088610846806900F00400019000BFA9
:101FD00000BF20200290022003900320059002A958
:101FE0001748FFF7EFF8402002900020039004907C
:101FF00002A91348FFF7E6F81248134908600020C9
:1020000048600021104881608021C1604900016161
:1020100089004161002181614FF40051C161FFF7E6
:102020003DF808B1FEF7B1FC00BF0748E064446228
:1020300000BF06B010BD000000300140001002409B
:10204000000801401C0002406C01002070B50446ED
:102050002546681EB0F1807F01D301200FE0681E85
:102060004FF0E02148610F214FF0FF3001F0F0FD0B
:1020700000204FF0E021886107200861002070BD3A
:1020800010B50346002200BF93F83C00012801D19F
:10209000022010BD012083F83C0000BF22F0FF00A9
:1020A000CC6840EA040222F440708C6840EA0402E2
:1020B00022F480604C6840EA040222F400600C685C
:1020C00040EA040222F480500C6940EA040222F43F
:1020D00000504C6940EA040222F48040CC6940EA96
:1020E00004021868426400BF002083F83C0000BF6F
:1020F00000BFCEE730B502460B4600BF92F83C0069
:10210000012801D1022030BD012082F83C0000BF2F
:10211000022082F83D00106844681068816824F04D
:1021200070041868044310684460144D1068A84295
:1021300013D0134D1068A8420FD01068B0F1804F33
:102140000BD0104D1068A84207D00F4D1068A84260
:1021500003D00E4D1068A84205D121F080015868C7
:10216000014310688160012082F83D0000BF00201B
:1021700082F83C0000BF00BFC5E70000002C014012
:10218000003401400004004000080040000C004002
:1021900010B504460CB9012010BD94F83D0028B9D3
:1021A000002084F83C00204600F026F8022084F845
:1021B0003D00211D206801F049FA012084F8460005
:1021C00000BF84F83E0001213F2001554020015509
:1021D0004120015500BF00BF012084F84200432088
:1021E0000155442001554520015500BF012084F8C8
:1021F0003D000020D0E7000008B5364A0168914252
:102200000DD100BF3449896941F40061324A9161BE
:102210001146896901F40061009100BF59E001682D
:10222000B1F1804F0DD100BF2B49C96941F00101C7
:10223000294AD1611146C96901F00101009100BF2D
:1022400047E0264A016891420DD100BF2249C96981
:1022500041F00201204AD1611146C96901F0020131
:10226000009100BF35E01E4A016891420DD100BFC8
:102270001949C96941F00401174AD1611146C96978
:1022800001F00401009100BF23E0164A0168914269
:102290000DD100BF1049C96941F008010E4AD16152
:1022A0001146C96901F00801009100BF11E00E4A12
:1022B000016891420DD100BF0749896941F400517D
:1022C000054A91611146896901F40051009100BFEE
:1022D00000BF08BD002C0140001002400004004077
:1022E00000080040000C0040003401402DE9F0419E
:1022F00004460D4600BF94F83C00012802D102209C
:10230000BDE8F081012084F83C0000BF022084F881
:102310003D002068866826F0770626F47F46206810
:1023200086602868502833D00CDC202850D004DC8C
:1023300000284BD0102851D149E0302849D04028FE
:102340004CD139E060282DD0702807D0B0F5805FDF
:1023500003D0B0F5005F41D10DE040E0D5E90213B4
:102360006A68206801F0D1F92068866846F077062F
:102370002068866033E0D5E902136A68206801F0BE
:10238000C4F92068806840F480402168886026E0B5
:10239000EA686968206801F0A9FA5021206801F014
:1023A000BFF91CE0EA686968206801F0B2FA6021B0
:1023B000206801F0B5F912E0EA686968206801F068
:1023C00095FA4021206801F0ABF908E000BF00BF9A
:1023D00000BF2968206801F0A3F900E000BF00BF3A
:1023E000012084F83D0000BF002084F83C0000BFBD
:1023F00000BF85E710B586B0044600200290039028
:102400000490059066492068884222D100BF654843
:10241000806940F04000634988610846806900F0A7
:102420004000019000BF00BF4FF4D4400290022052
:102430000390059002A95C48FEF7C4FE00BF5B490B
:10244000486820F0C00040F0E06040F0C000486004
:10245000A3E02068B0F1804F39D100BF51488069B6
:1024600040F008004F4988610846806900F0080084
:10247000019000BF00BF00BF0846806940F0040023
:1024800088610846806900F00400019000BF00BF29
:1024900040F60840029002200390059002A94448AB
:1024A000FEF790FE4FF4004002900220039005904A
:1024B00002A94048FEF786FE00BF3C49486820F468
:1024C000407040F0E06040F44070486065E03A4998
:1024D0002068884221D100BF3248806940F008005E
:1024E000304988610846806900F00800019000BF0B
:1024F00000BF3120029002200390059002A92C48D1
:10250000FEF760FE00BF2949486820F4406040F0B3
:10251000E06040F4006048603FE02849206888425D
:1025200020D100BF1F48806940F020001D4988610C
:102530000846806900F02000019000BF00BF4FF402
:102540007040029002200390059002A91C48FEF7FB
:1025500039FE00BF1549486840F0E06040F4805003
:1025600048601AE017492068884216D100BF0D481C
:10257000806940F004000B4988610846806900F0DA
:102580000400019000BF00BF0120029002200390D0
:10259000059002A90748FEF715FE06B010BD000021
:1025A000002C0140001002400018014000000140D2
:1025B000000C0140000801400004004000080040F9
:1025C00000140140000C004070B504460D4616464C
:1025D00000BF94F83C00012801D1022070BD012009
:1025E00084F83C0000BF36B1042E1BD0082E31D039
:1025F0000C2E5ED145E02946206801F09BF820684A
:10260000806940F00800216888612068806920F0B6
:10261000040021688861206880692969084321686D
:10262000886147E02946206801F0BCF8206880698D
:1026300040F40060216888612068806920F480602F
:102640002168886120688069296940EA0120216841
:1026500088612FE02946206801F0E2F82068C0690F
:1026600040F008002168C8612068C06920F00400BB
:102670002168C8612068C069296908432168C86168
:1026800018E02946206801F007F92068C06940F485
:1026900000602168C8612068C06920F480602168FA
:1026A000C8612068C069296940EA01202168C861C1
:1026B00000E000BF00BF00BF002084F83C0000BF66
:1026C00000BF8BE710B504460CB9012010BD94F88B
:1026D0003D0028B9002084F83C00204600F025F891
:1026E000022084F83D00211D206800F0AFFF01208A
:1026F00084F8460000BF84F83E0001213F200155C8
:10270000402001554120015500BF00BF012084F841
:10271000420043200155442001554520015500BF8A
:10272000012084F83D000020D0E7704770B50446D2
:102730000D4615B994F83E000BE0042D02D13F2060
:10274000005D06E0082D02D14020005D01E041203F
:10275000005D012801D0012070BD1DB9022084F860
:102760003E000EE0042D03D102213F20015508E078
:10277000082D03D102214020015502E00221412011
:10278000015501222946206800F0AEFF1F4920684C
:10279000884203D01E492068884201D1012000E010
:1027A000002028B12068406C40F400402168486453
:1027B00016492068884213D01549206888420FD0F6
:1027C0002068B0F1804F0BD012492068884207D0B2
:1027D00011492068884203D01049206888420CD1F2
:1027E0002068806800F00706062E0CD0206800687C
:1027F00040F001002168086005E02068006840F0B2
:102800000100216808600020A6E70000002C0140BC
:10281000003401400004004000080040000C00406B
:1028200030B504460D4600222946206800F05CFFC2
:1028300023492068884203D022492068884201D178
:10284000012000E0002090B100BF2068006A41F242
:102850001111084050B92068006A8910084028B951
:102860002068406C20F400402168486400BF00BF2D
:102870002068006A41F21111084050B92068006ACE
:102880008910084028B92068006820F001002168FC
:10289000086000BF1DB9012084F83E000EE0042D41
:1028A00003D101213F20015508E0082D03D101216A
:1028B0004020015502E0012141200155002030BD9A
:1028C000002C014000340140704710B504460CB99B
:1028D000012010BDA06900B100E000BF94F83900EC
:1028E00028B9002084F83800204600F027F824207A
:1028F00084F839002068C06820F400502168C8605E
:10290000204601F087F82068006920F49040216893
:1029100008612068406920F02A0021684861206829
:10292000C06840F400502168C8600020E0632020A7
:1029300084F8390084F83A000020CAE710B586B060
:102940000446002002900390049005904A492068B4
:10295000884249D100BF4948C06940F40020474936
:10296000C8610846C06900F40020019000BF00BFA4
:1029700000BF0846806940F0100088610846806901
:1029800000F01000019000BF00BF08150290022067
:1029900003900320059002A93948FEF713FC4FF479
:1029A0000060029000200390049002A93448FEF7D2
:1029B00009FC34483449086000204860002132484E
:1029C00081608021C16000210161416181614FF41A
:1029D0000051C161FEF762FB08B1FDF7D6FF00BFF1
:1029E00029486063446245E028492068884241D113
:1029F00000BF2248C06940F480202049C8610846D1
:102A0000C06900F48020019000BF00BF00BF0846ED
:102A1000806940F0200088610846806900F020004D
:102A2000019000BF00BF8815029002200390032090
:102A3000059002A91648FEF7C5FB4FF400700290FE
:102A400000200390049002A91148FEF7BBFB00BFD1
:102A50001049486820F0300040F0E06040F030005D
:102A6000486000BF002201212720FEF7D9FD272062
:102A7000FEF7C6FD06B010BD004C0040001002403D
:102A80000010014030040240E003002000480040F4
:102A9000001401400000014077B581B0044615469E
:102AA00094F83A00202850D1029800B115B90120BD
:102AB00004B070BD00BF94F83800012801D1022095
:102AC000F6E7012084F8380000BF0298A062A585CF
:102AD0000020E063222084F83A001D48616B886280
:102AE0001C48616BC8621C48616B08630020616B05
:102AF000486302AE32682368191D2B46606BFEF7EF
:102B000013FB00BF00200090206800680090206840
:102B10004068009000BF00BF00BF002084F838006C
:102B200000BF2068C06840F480702168C8602068D9
:102B3000406940F00100216848612068406940F028
:102B40004000216848610020B2E70220B0E70000A1
:102B50008B390008D13900083B39000810B504460C
:102B60000348844202D1034803F03BF910BD000042
:102B7000600300206804002070472DE9F84F0446E8
:102B80000E46174699464FF0000A94F8390020285F
:102B90005AD106B117B90120BDE8F88F00BF94F8EB
:102BA0003800012801D10220F6E7012084F838001E
:102BB00000BF0020E063212084F83900FEF7B2FC5A
:102BC0008246A784E784A068B0F5805F04D12069BD
:102BD00010B90025B04602E035464FF0000800BFAE
:102BE000002084F8380000BF1BE0534600228021FB
:102BF0002046CDF8009000F08BFF08B10320CBE712
:102C000045B9B8F80000C0F308002168486008F131
:102C1000020803E02878216848606D1CE08C401EA3
:102C2000E084E08C0028E0D1534600224021204679
:102C3000CDF8009000F06CFF08B10320ACE7202035
:102C400084F839000020A7E70220A5E70EB5002090
:102C5000009001900290124812490860002111482A
:102C60008160017301754FF46021C16100200D493D
:102C7000486001210B480161FDF75CFF08B1FDF7D9
:102C800084FE1020009001200190072002906946E8
:102C90000448FDF79FFE08B1FDF777FE0EBD00006A
:102CA00000240140A000002008B500BF1948406979
:102CB00040F00100174948610846406900F00100F2
:102CC000009000BF00BF00BF0846406940F002000E
:102CD00048610846406900F00200009000BF00BF54
:102CE000012202210B20FEF79BFC0B20FEF788FC43
:102CF000022211460C20FEF793FC0C20FEF780FC0C
:102D0000002211463A20FEF78BFC3A20FEF778FCB1
:102D100008BD00000010024000B585B00020019001
:102D200002900390049000BF3848806940F004008E
:102D3000364988610846806900F00400009000BFB1
:102D400000BF00BF0846806940F00800886108465F
:102D5000806900F00800009000BF00BF00BF084677
:102D6000806940F0400088610846806900F04000BA
:102D7000009000BF00BF00BF0846806940F02000FF
:102D800088610846806900F02000009000BF00BF05
:102D900000BF0846806940F01000886108468069DD
:102DA00000F01000009000BF00BF01221E21184853
:102DB000FEF7B2FB01224FF4C0411648FEF7ACFB10
:102DC0001E20019001200290002003900320049017
:102DD00001A90F48FEF7F6F948F2020001900E48EB
:102DE00002900020039001A90A48FEF7EBF94FF486
:102DF000C040019001200290002003900220049026
:102E000001A90448FEF7DEF905B000BD001002403C
:102E100000080140000C01400000111010B51048DE
:102E2000104908604FF4827048604FF480610D488B
:102E300081604900C1600021016141614FF400716E
:102E400081613821C16100210162416281620A21F0
:102E5000C162FFF737F808B1FDF797FD10BD00001C
:102E6000003001401401002000B595B00020119001
:102E70001290139014900F9010901C2108A8FDF749
:102E800006FA20216846FDF702FA384838490860FA
:102E9000002048600021364881604FF47A71C1609B
:102EA0000021016141618161FFF772F908B1FDF70D
:102EB0006CFD4FF48050119011A92D48FFF716FAC0
:102EC00008B1FDF762FD2A48FFF7FCFB08B1FDF7EA
:102ED0005CFD00200F9010900FA92548FFF70AF91C
:102EE00008B1FDF752FD602008904FF4FA70099088
:102EF00000200A900B900C900D900E90002208A9D3
:102F00001B48FFF761FB08B1FDF73FFD042208A94C
:102F10001748FFF759FB08B1FDF737FD082208A94C
:102F20001348FFF751FB08B1FDF72FFD0C2208A94C
:102F30000F48FFF749FB08B1FDF727FD002000907F
:102F400001900290039004904FF4005005900020EF
:102F5000079069460648FFF793F808B1FDF715FD9D
:102F60000348FFF747FA15B000BD0000002C0140F0
:102F7000B001002000B58DB0002009900A900B90A0
:102F80000C90079008901C216846FDF780F94FF0DF
:102F90008040304908600020486000212D48816051
:102FA0004FF47A71C160002101618161FFF7F0F88F
:102FB00008B1FDF7EAFC4FF48050099009A92548B3
:102FC000FFF794F908B1FDF7E0FC2248FFF77AFB20
:102FD00008B1FDF7DAFC00200790089007A91D480A
:102FE000FFF788F808B1FDF7D0FC6020009064205E
:102FF0000190002002900490002269461548FFF7D6
:10300000E3FA08B1FDF7C1FCC8200190042269462B
:103010001048FFF7D9FA08B1FDF7B7FC4FF49670E6
:103020000190082269460B48FFF7CEFA08B1FDF778
:10303000ACFC4FF4C87001900C2269460548FFF7BC
:10304000C3FA08B1FDF7A1FC0248FFF7D3F90DB0B0
:1030500000BD0000F801002000B58DB000200990EF
:103060000A900B900C90079008901C216846FDF781
:103070000EF92C482C4908600020486000212A489D
:1030800081604FF47A71C160002101618161FFF7B5
:103090007FF808B1FDF779FC4FF48050099009A939
:1030A0002148FFF723F908B1FDF76FFC1E48FFF731
:1030B00009FB08B1FDF769FC00200790089007A9FB
:1030C0001948FFF717F808B1FDF75FFC6020009082
:1030D0004FF4FA700190002002900490002269469B
:1030E0001148FFF771FA08B1FDF74FFC4FF4167065
:1030F0000190042269460C48FFF766FA08B1FDF713
:1031000044FC4FF42F700190082269460648FFF7EF
:103110005BFA08B1FDF739FC0348FFF76BF90DB016
:1031200000BD0000000400404002002000B58DB04A
:10313000002009900A900B900C90079008901C2199
:103140006846FDF7A4F82C482C4908600020486028
:1031500000212A4881604FF47A71C1600021016129
:103160008161FFF715F808B1FDF70FFC4FF48050AF
:10317000099009A92148FFF7B9F808B1FDF705FC46
:103180001E48FFF79FFA08B1FDF7FFFB00200790EC
:10319000089007A91948FEF7ADFF08B1FDF7F5FB48
:1031A0006020009000200190029004900022694667
:1031B0001248FFF709FA08B1FDF7E7FB0422694658
:1031C0000E48FFF701FA08B1FDF7DFFB0822694658
:1031D0000A48FFF7F9F908B1FDF7D7FB0C22694659
:1031E0000648FFF7F1F908B1FDF7CFFB0348FFF7F9
:1031F00001F90DB000BD0000000800408802002069
:1032000000B58DB0002009900A900B900C900790AB
:1032100008901C216846FDF73AF8214821490860CA
:103220000020486000211F4881604FF47A71C1601E
:10323000002101618161FEF7ABFF08B1FDF7A5FB3D
:103240004FF48050099009A91648FFF74FF808B1CC
:10325000FDF79BFB1348FFF735FA08B1FDF795FB27
:1032600000200790089007A90E48FEF743FF08B119
:10327000FDF78BFB602000904FF4FA700190002066
:1032800002900490002269460648FFF79DF908B1B4
:10329000FDF77BFB0348FFF7ADF80DB000BD000064
:1032A000000C0040D002002000B587B00020039041
:1032B0000490059006900190029015481549086009
:1032C000472048600021134881606421C1600021CB
:1032D000016141618161FEF75BFF08B1FDF755FBBC
:1032E0004FF48050039003A90A48FEF7FFFF08B18E
:1032F000FDF74BFB202001900020029001A905481A
:10330000FEF7F8FE08B1FDF740FB07B000BD000076
:10331000003401401803002010B50B480B49086029
:103320004FF4E1304860002108488160C1600161CC
:103330000C21416100218161C161FFF7C6FA08B12A
:10334000FDF723FB10BD0000004C0040600300208F
:1033500010B50B480B4908604FF4E130486000217C
:1033600008488160C16001610C21416100218161D7
:10337000C161FFF7AAFA08B1FDF707FB10BD000015
:1033800000480040A0030020704700007CB50546BF
:103390000C46032D04DA3BA002F0D2FA00207CBDDB
:1033A00001AA44A16068FCF7B5FF6A4641A1A06884
:1033B000FCF7B0FF009811285AD2DFE800F0590955
:1033C0000E13181D22272C31363B40454A4F54001E
:1033D00039490198096848634EE0374901980968FE
:1033E000886349E0344901980968C86344E0324978
:1033F0000198096808643FE030490198096848630A
:103400003AE02E4901980968886335E02B49019814
:103410000968C86330E029490198096808642BE00D
:10342000274901980968486326E0254901980968F9
:10343000886321E0224901980968C8631CE020499B
:1034400001980968086417E01E49019809684863F3
:1034500012E01C490198096888630DE01949019838
:103460000968C86308E0174901980968086403E01F
:1034700015A002F065FA00BF00BF17A002F060FAC5
:1034800000208CE7706C6561736520696E707574DF
:1034900020746865206475747920706172616D2094
:1034A000616E64206368616E6E656C4E756D21217E
:1034B000210A000025640000B0010020F80100206E
:1034C00040020020880200206572726F72207061D5
:1034D00072616D0A00000000736574207375636388
:1034E0006573730A0000000008B508490968C90837
:1034F0004FF47A72B1FBF2F14143009100BF00BF7B
:1035000000994A1E00920029F9D108BD0C00002044
:1035100010B502F0BFF902F029FF02F0CBF910BD9F
:1035200000B595B028210BA8FCF7B1FE142106A820
:10353000FCF7ADFE18216846FCF7A9FE01200B90B0
:1035400000040C9000200D9001200F90022012909A
:10355000C10313914FF4E01114910BA8FEF780FA08
:1035600008B1FDF712FA0F20069002200790002004
:1035700008904FF48060099000200A90022106A86C
:10358000FEF738F908B1FDF700FA022000904FF479
:10359000404002906846FEF795F808B1FDF7F5F94E
:1035A00015B000BD10B5002100200022214B5B6842
:1035B00003F00C0121B1042906D0082928D107E025
:1035C0001D4B1E4C236027E01B4B1C4C236023E04B
:1035D000184B5B6803F47010164B5B6803F4803281
:1035E000022303EB904022B9154B4343134C236055
:1035F0000DE0104B5B6803F4003323B1104B4343E1
:103600000E4C236003E00C4B43430C4C236003E05F
:10361000094B0A4C236000BF00BF064B5B68C3F335
:103620000313084CE15C054B1B68CB40034C236043
:1036300010BD00000010024000127A000C000020B3
:1036400000093D00AA6D00087047000010B502682F
:10365000204B98420ED0204B98420BD0B0F1804FB7
:1036600008D01E4B984205D01D4B984202D01D4BEE
:10367000984203D122F070024B681A43154B9842CE
:103680000ED0154B98420BD0B0F1804F08D0134BA1
:10369000984205D0124B984202D0124B984203D167
:1036A00022F44072CB681A4322F080034C6943EA4B
:1036B000040202608B68C3620B688362054B984208
:1036C00002D0054B984201D10B690363012343618A
:1036D00010BD0000002C01400034014000040040F7
:1036E00000080040000C004030B501F01F05012427
:1036F00004FA05F3046A9C430462046A01F01F059E
:1037000002FA05F52C43046230BD30B50C468168E1
:1037100021F47F4142EA032525432943816030BDDE
:103720000A46816821F0700142F007031943816065
:103730007047000030B5056A25F001050562026A90
:103740004368846924F0700424F003040D682C435A
:1037500022F002028D682A43104DA84200D103E0F6
:103760000F4DA84206D100BF22F00802CD682A43BF
:1037700022F00402094DA84202D0094DA84207D107
:1037800023F4807323F400734D692B438D692B431D
:10379000436084614D684563026230BD002C014086
:1037A0000034014030B5056A25F010050562026A53
:1037B0004368846924F4E04424F440740D6844EAC6
:1037C000052422F020028D6842EA0512124DA8421B
:1037D00000D103E0114DA84207D100BF22F08002C2
:1037E000CD6842EA051222F040020B4DA84202D0F9
:1037F0000A4DA84209D123F4806323F400634D6984
:1038000043EA85038D6943EA8503436084614D681B
:103810008563026230BD0000002C0140003401408D
:1038200030B5056A25F480750562026A4368C4698B
:1038300024F0700424F003040D682C4322F4007279
:103840008D6842EA0522124DA84200D103E0114DD5
:10385000A84207D100BF22F40062CD6842EA0522E7
:1038600022F480620A4DA84202D00A4DA84209D132
:1038700023F4805323F400534D6943EA05138D6903
:1038800043EA05134360C4614D68C563026230BDFD
:10389000002C01400034014030B5056A25F4805504
:1038A0000562036A4468C26922F4E04222F440726D
:1038B0000D6842EA052223F400538D6843EA05337C
:1038C000084DA84202D0084DA84204D124F48044F7
:1038D0004D6944EA85144460C2614D680564036221
:1038E00030BD0000002C01400034014030B50B46D3
:1038F0001446026A056A25F001050562816921F016
:10390000F00141EA041122F00A021A4381610262C5
:1039100030BD30B50B461446056A25F0100505622A
:103920008169026A21F4704141EA043122F0A00267
:1039300042EA03128161026230BD70B5064600257D
:10394000746A20684069C0F3C01594F839002128D2
:1039500005D125B10020E084204600F050F8206811
:103960004069C0F3801594F83A00222805D125B1AA
:103970000020E085204600F032F8E06B40F01000B7
:10398000E0632046FEF7A0FF70BD70B505466C6A87
:103990002868006800F02000B0B90020E0852068A9
:1039A000C06820F480702168C8602068406920F0F9
:1039B0000100216848612068406920F040002168CA
:1039C0004861202084F83A002046FFF7C7F870BD10
:1039D00070B50446656A2846FFF7CEF870BD0168E9
:1039E000C96821F490710268D1600168496921F0C9
:1039F000010102685161202180F83A107047016886
:103A0000C96821F0C0010268D160202180F8391016
:103A10007047000070B504462168096921F44051DF
:103A2000E2681143226811612269A1681143626949
:103A300041EA02052168C96841F20C6291432943B9
:103A40002268D1602168496921F44071A26911435B
:103A5000226851612D4A2168914202D1FDF7A6FFEB
:103A600001E0FDF793FF00EBC00101EB001162687C
:103A70009200B1FBF2F100EBC00202EB00126368AE
:103A80009B00B2FBF3F26423B2FBF3F202EBC2033E
:103A900003EB0212A1EB8201322202EB011164223C
:103AA000B1FBF2F101F0F00100EBC00202EB0012F9
:103AB00063689B00B2FBF3F26423B2FBF3F201EB09
:103AC000021200EBC00101EB001163689B00B1FB27
:103AD000F3F100EBC00303EB00136668B600B3FB21
:103AE000F6F36426B3FBF6F303EBC30606EB03130E
:103AF000A1EB8301322303EB01116423B1FBF3F14A
:103B000001F00F0111442268916070BD003801403E
:103B10002DE9F04104460D4617469846069E21E0E1
:103B2000701CF8B12EB1FDF7FDFCA0EB0800B0420F
:103B300018D92068C06820F4D0702168C860206857
:103B4000406920F0010021684861202084F8390094
:103B500084F83A0000BF002084F8380000BF03203A
:103B6000BDE8F081206800682840A84201D101200A
:103B700000E00020B842D3D00020F1E710B54FF0AC
:103B8000FF3401F087FE144800680068C0F340105D
:103B9000F0B111480068C06800F02000C0B112E028
:103BA0004FF0FF340C4800680068C0F3401018B1B3
:103BB000094800684068C4B2601C00B904E0E1B282
:103BC000064802F036F8EBE700BF054802F009F9B5
:103BD00001F070FE10BD0000A0030020340400209E
:103BE0004004002000BFFEE70146481EB0F1807F80
:103BF00001D301207047481E4FF0E0225061FF20A2
:103C0000044A107000204FF0E022906107201061FC
:103C10000020EFE723ED00E00FB4084B10B504A936
:103C200002AA039800F09EF8044602A9002000F0C2
:103C3000BDF9204610BC5DF814FB0000AD3F000844
:103C400002480068C0F30220704700000CED00E05D
:103C500010B5002804DB0A07130E054A135406E0CA
:103C60000A07140E034A00F00F031B1FD45410BDA3
:103C700000E400E018ED00E0014609B900207047BB
:103C8000C8B220B1C8B20E4A105C401CF7E701F47C
:103C90007F4028B10A48C1F30722805C0930EEE773
:103CA00001F47F0028B10648C1F30742805C11305F
:103CB000E5E7034800EB116000781930DFE700000A
:103CC000A66E000802E008C8121F08C1002AFAD137
:103CD00070477047002001E001C1121F002AFBD18C
:103CE0007047000003490868884201D001207047EE
:103CF0000020FCE77C0000202DE9F04389B0064657
:103D000088469146002400E0641C305D202804D0E1
:103D1000305D092801D04445F6D324B94FF0FF3077
:103D200009B0BDE8F0832146304601F007FA0546A8
:103D300015B94FF0FF30F3E7202101A8FCF7A7FAEF
:103D400001AA4146304601F063FA074617B94FF021
:103D5000FF30E5E701A93846A847C9F80000002070
:103D6000DEE700002DE9FF4F89B09B4604460025A1
:103D700006E025280BD05A460B999047641C6D1C11
:103D800020780028F5D10DB02846BDE8F08F002737
:103D9000B8460122474900E0074314F8013F203BA1
:103DA00002FA03F00842F7D120782E2819D114F82E
:103DB000010F47F004072A280ED06FF02F02207859
:103DC000A0F1300109290CD808EB880102EB410170
:103DD00000EB0108641CF2E70A98641C50F8048B9D
:103DE0000A9020780028CED0642808D0692806D010
:103DF00075281ED05A460B9990476D1C58E00A99B9
:103E00004FF00A0901C90A91002802DA40422D2127
:103E100002E0390504D52B218DF82010012103E0A3
:103E2000F90704D02021F7E78A4608AE0DE000210B
:103E3000FAE70A994FF00A0901C90A91F7E74946DA
:103E4000FCF72AFB303106F8011D0028F7D1ADEB55
:103E5000060000F12009780701D44FF00108C84599
:103E600002DDA8EB090000E000208046002706E004
:103E700008A85A46C05D0B9990476D1C7F1C57459A
:103E8000F6DB04E030205A460B9990476D1CB8F1E0
:103E90000001A8F10108F5DC05E016F8010B5A460F
:103EA0000B9990476D1CB9F10001A9F10109F4DCEF
:103EB000641C65E7092801002DE9FC5F04468B4678
:103EC00015461E46DDE90C9ADDE90E7804F11C006A
:103ED0004060006000BF24346560A660C4F80C90A8
:103EE000C4F810A02321D4E9030201F0A0FDD4E915
:103EF000033C63441A1F0F4BD4E9010101F0A4FCF9
:103F00002060A77667760020E061C4F82080C4F8BE
:103F1000248060612076E0652066243C0090234682
:103F2000054A2146019004F14C0002F0A1FA00205C
:103F3000BDE8FC9F41600008A56200082DE9F0473C
:103F400004460E4617469846DDF8209084F81190F6
:103F5000607C20F0010060746662A762002020632C
:103F6000C4F82C80002506E004F11C0101EBC5001B
:103F700001F001FD6D1C012DF6DBBDE8F08710B5E9
:103F80000246002001460EE002F11C0303EBC100D3
:103F9000D0E900436360D0E90034236040600060F2
:103FA00000BF481C01460129EEDB10BD0A68531C06
:103FB0000B6010707047000070B505460E46002477
:103FC00003E0204600F062FB641C102CF9DB02A029
:103FD00001F0B6FC002070BD616C6C2050574D2084
:103FE0006368616E6E656C732061726520656E61D9
:103FF000626C65640A00000010B520A001F0A0FC0E
:104000002148017821A001F09BFC1F48007800F0B6
:10401000010010B123A001F093FC1B48007800F0D0
:10402000020010B122A001F08BFC1748007800F0CC
:10403000040010B121A001F083FC1348007800F0C7
:10404000080010B121A001F07BFC0F48007800F0BF
:10405000100010B120A001F073FC0B48007800F0B4
:10406000800030B108480F3001681DA001F068FCE5
:1040700002E01FA001F064FC10BD00006275732017
:104080006661756C743A0A0029ED00E05343425FA3
:10409000434653525F424653523A307825303258A5
:1040A00020000000494255534552522000000000B4
:1040B000505245434953455252200000494D5052F9
:1040C000454349534552522000000000554E535479
:1040D0004B4552522000000053544B455252200091
:1040E0005343422D3E424641523A253038580A0049
:1040F0000A00000070B504460D4600F0D1FC002017
:1041000070BD000010B5024802F04EF810BD00006E
:10411000B804002010B51448006890F82900C0F3D6
:10412000400020B9002011490870084610BD104811
:10413000006838B180220E4801680C48FCF7BEF8D0
:104140000A48F3E701F062F820B10AA10748FCF73A
:10415000C8F803E009A10548FCF7C3F809A1034822
:10416000FCF7A0F80148E1E72C00002058120020DD
:10417000300000206D7368200000000066696E73D7
:10418000682000003E00000010B501F033FA10BDB9
:104190000549096891F8291060F34101024A126843
:1041A00082F82910704700002C000020024A10609D
:1041B000024A1160704700001C000020200000200F
:1041C0007FB5002514491548FFF7F0FF144815493D
:1041D0000860154C0A2015214FF40072134BCDE9ED
:1041E0000032CDE902100023114A12A1204601F04D
:1041F000B7FF054600231A4610A10A48006801F0DF
:10420000D9FD0120FFF7C4FF1CB115B9204602F00B
:1042100011F8002004B070BDF47000086C70000844
:10422000D81100202C000020500F0020D80F0020B3
:1042300045420008747368656C6C0000736872789E
:1042400000000000E948006890F8290020F0010013
:10425000401CE649096881F82900FFF75BFF054625
:1042600001F06EFBC1E1FFF78FFF0446002C00DA7E
:10427000BBE11B2C05D10120DC49096881F828002D
:10428000B3E1DA48006890F8280001280DD15B2CD2
:1042900005D10220D549096881F82800A5E1002050
:1042A000D249096881F8280045E0D048006890F8B4
:1042B000280002283FD10020CC49096881F8280055
:1042C000412C00D191E1422C00D18EE1442C11D13E
:1042D000C6480068B0F87C0058B1C5A001F030FBBA
:1042E000C2480068B0F87C00401EC0490968A1F8C7
:1042F0007C007AE1432C1ED1BC480068B0F87C00F9
:10430000BA490968B1F87A10884213DAB7480068E8
:10431000B0F87C20B54800682A30815CB5A001F077
:104320000FFBB2480068B0F87C00401CAF49096838
:10433000A1F87C0059E10CB1FF2C00D155E1092C0A
:104340001FD1002503E0AAA001F0FAFA6D1CA748CE
:104350000068B0F87C00A842F5DCA44800682A3068
:1043600002F0E8FAA14800682A30FBF7B3FF80B2F8
:104370009E490968A1F87A009C490968A1F87C0067
:1043800033E17F2C01D0082C6ED198480068B0F83A
:104390007C0000B929E195480068B0F87A00401E19
:1043A00092490968A1F87A0090480068B0F87C004A
:1043B000401E8E490968A1F87C008C480068B0F85E
:1043C0007A008A490968B1F87C1088423FDD874B42
:1043D0001B68B3F87A30854E3668B6F87C609A1B55
:1043E000824B1B68B3F87C305B1C804E36682A36E3
:1043F00099197E4B1B68B3F87C607C4B1B682A3391
:10440000F01801F0F3FA002278480068B0F87A104A
:10441000764800682A30425474480068B0F87C201E
:10442000724800682A30111873A001F089FA6F48A9
:104430000068B0F87C5003E06DA001F081FA6D1CBB
:104440006A480068B0F87A00A842F5DA0BE06CA080
:1044500001F076FA002165480068B0F87A206348D8
:1044600000682A308154C0E00D2C01D00A2C2BD1D9
:1044700000F0CCFE012812D15C48006890F82900B9
:1044800000F0010010B15FA001F05AFA574800682F
:10449000B0F87A10554800682A3000F019FEFFF78E
:1044A00039FE054601F04CFA5021504800682A3088
:1044B000FBF7EDFE00204D490968A1F87A004B4951
:1044C0000968A1F87C0090E048480068B0F87A00DC
:1044D000502804DB002045490968A1F87A004348C8
:1044E0000068B0F87C0041490968B1F87A10884248
:1044F00045DA3E4B1B68B3F87A303C4E3668B6F866
:104500007C609A1B394B1B68B3F87C60374B1B6887
:104510002A33F118354B1B68B3F87C305B1C334EE3
:1045200036682A36981901F061FA30480068B0F808
:104530007C202E4800682A3084542C48006890F86B
:10454000290000F0010050B128480068B0F87C2034
:10455000264800682A3011182BA001F0F1F92348F1
:104560000068B0F87C5003E021A001F0E9F96D1C6F
:104570001E480068B0F87A00A842F5DC12E01B483B
:104580000068B0F87A20194800682A308454174827
:10459000006890F8290000F0010018B1214615A02C
:1045A00001F0CEF9002411480068B0F87A00401CF0
:1045B0000E490968A1F87A000C480068B0F87C0040
:1045C000401C0A490968A1F87C0008480068B0F856
:1045D0007A00502808DB002004490968A1F87A0015
:1045E00002490968A1F87C0000BF3CE62C000020CD
:1045F0000800000025630000082573202008000043
:10460000082008000A0000002573000010B51448B7
:10461000006800F0020010B112A001F091F91048FA
:10462000006800F0804088B10D48C01E007808B1D5
:10463000FFF7E2FC0A48001F007808B100F0E0FB39
:104640000748801E008808B102F036FB0448006865
:1046500000F0004010B109A001F072F910BD000097
:104660002CED00E06661696C656420766563746FAB
:10467000722066657463680A0000000064656275F4
:1046800067206576656E740A0000000010B5044668
:10469000082C2DD2DFE804F004090E13181D222780
:1046A00000211548FEF742F823E004211248FEF7E6
:1046B0003DF81EE008211048FEF738F819E0002107
:1046C0000E48FEF733F814E000210D48FEF72EF8EF
:1046D0000FE004210A48FEF729F80AE008210848FB
:1046E000FEF724F805E00C210548FEF71FF800E06E
:1046F00000BF00BF10BD000040020020D00200201B
:1047000088020020082925D2DFE801F004080C10F7
:1047100014181C20114A126850631CE00F4A1268DA
:10472000906318E00D4A1268D06314E00C4A1268D6
:10473000506310E00B4A126850630CE0094A12689B
:10474000906308E0074A1268D06304E0054A1268E3
:10475000106400E000BF00BF70470000400200206E
:10476000D00200208802002010B50446082C2DD26B
:10477000DFE804F004090E13181D22270021154854
:10478000FEF74EF823E004211248FEF749F81EE038
:1047900008211048FEF744F819E000210E48FEF702
:1047A0003FF814E000210D48FEF73AF80FE004212D
:1047B0000A48FEF735F80AE008210848FEF730F805
:1047C00005E00C210548FEF72BF800E000BF00BF14
:1047D00010BD000040020020D0020020880200200E
:1047E00010B502A001F0ACF8002010BD48656C6C5B
:1047F0006F2052542D546872656164210A000000D4
:104800001FB50B4802F03EFA0A4908600A204FF42F
:104810000062094BCDE90120009303900023074A71
:1048200007A10B4801F09CFC094801F003FD1FBDE6
:10483000100000201800002050070020D56A000852
:10484000686F7374205365727669636500000000B9
:10485000C806002010B50CA001F072F80F480468DB
:104860000CE002220EA12068FBF744FD00B904E031
:104870000CA0216801F064F800BF08340A48006801
:104880008442EED3002010BD2D2D46756E637469F1
:104890006F6E204C6973743A0A0000001C000020FF
:1048A0005F5F000025730A00200000202DE9F0471B
:1048B00004460D4616461F46284601F0F3F8814689
:1048C00009F10408C4F8008025726660E7600020E2
:1048D0002061BDE8F0872DE9F84F07460C464FF000
:1048E000000A00202061E06808B1207A10B9002099
:1048F000BDE8F88FD4F800801FB945464FF0010A93
:1049000000E03D46FBF730FC0090BAF1000F0ED1FD
:10491000A5F1140B9BF8100020F08000217A88424A
:1049200004D00098FBF724FC0020E1E700BF00263C
:10493000D4F804900BE02D68454501D1002507E02F
:10494000761C49F8045BE068B04200D100E0F2E771
:1049500000BF0098FBF70CFC26612846C8E7000062
:104960002DE9F04F8FB000270FF2D409082302AAD7
:1049700002210AA8FFF79AFF4FF010084A46414665
:1049800032A000F0DDFF404600F0DAFC36A000F077
:10499000D7FF00BF0AA93846FFF79DFF074600254D
:1049A00045E002A850F82500A0F11406FBF7DCFB57
:1049B0008246307C20F080009DF83010884203D081
:1049C0005046FBF7D5FB31E05046FBF7D1FB3446B0
:1049D00004F11C000168814201D1012100E00021A5
:1049E000A9B904F11C0000F0EEFF8346A08C234619
:1049F00010224146CDE9000B21A000F0A1FF04F1F7
:104A00001C0001F0B3FF17A000F09AFF0DE004F1C5
:104A10001C0000F0D8FF8346A08C2346102241469C
:104A2000CDE9000B1AA000F08BFF00BF6D1C0E98A3
:104A3000A842B6DC002FADD100200FB0BDE8F08F4A
:104A400073656D6170686F7265000000252D2A2EF8
:104A500073207620202073757370656E64207468EF
:104A6000726561640A000000202D2D2D202D2D2D52
:104A70002D2D2D2D2D2D2D2D2D2D2D0A000000003D
:104A8000252D2A2E2A7320253033642025643A00F0
:104A9000252D2A2E2A7320253033642025640A0010
:104AA0002DE9F04FB3B04FF000090FF21C1B0823A3
:104AB00025AA01212DA8FFF7F9FE4FF0100A5A464A
:104AC0005146434800F03CFF504600F039FC41A0FD
:104AD00000F036FF00BF2DA94846FFF7FCFE8146D7
:104AE0004FF0000865E025A850F82800A0F1140553
:104AF000FBF73AFB3290287C20F080009DF8BC1038
:104B0000884203D03298FBF733FB50E088222946D5
:104B100003A8FBF7A3FB3298FBF72AFB2C4694F87B
:104B20003D0023461022514600903AA000F008FFB5
:104B300094F83C0000F00F06012E03D138A000F0DD
:104B4000FFFE15E0022E03D138A000F0F9FE0FE0C1
:104B50001EB939A000F0F4FE0AE0042E03D139A0FA
:104B600000F0EEFE04E0032E02D139A000F0E8FED2
:104B7000276B00E07F1C38782328FBD0D4E90C1089
:104B8000791A401A64214843616BB0FBF1F002903E
:104B9000A16BA06CCDE90001636A206BC01A636B46
:104BA000C1181A462DA0029B00F0CAFE00BF08F1F2
:104BB00001083198404596DCB9F1000F8BD10020F7
:104BC00033B0BDE8F08F0000746872656164000066
:104BD00008700008202D2D2D20202D2D2D2D2D2D60
:104BE0002D202D2D2D2D2D2D2D2D2D2D202D2D2D0F
:104BF0002D2D2D2D2D2D2D20202D2D2D2D2D2D200C
:104C0000202D2D2D2D2D2D2D2D2D2D202D2D2D0A11
:104C100000000000252D2A2E2A7320253364200051
:104C20002072656164792020000000002073757394
:104C300070656E640000000020696E697420202099
:104C40000000000020636C6F7365202000000000EE
:104C50002072756E6E696E67000000002030782546
:104C600030387820307825303878202020202530C2
:104C700032642525202020307825303878202530D2
:104C800033640A002DE9F04790B000270FF2B40911
:104C9000082303AA0A210BA8FFF708FE4FF010080B
:104CA0004A46414629A000F04BFE404600F048FB32
:104CB00030A000F045FE00BF0BA93846FFF70BFE01
:104CC000074600262DE003A850F82600A0F11404A2
:104CD000FBF74AFA8246207C20F080009DF83410D1
:104CE000884203D05046FBF743FA19E05046FBF7E1
:104CF0003FFA2546D5E90B012B461022CDE90001EC
:104D0000414625A000F01CFE687C00F0010018B1AF
:104D100027A000F015FE02E028A000F011FE00BF61
:104D2000761C0F98B042CEDC002FC5D101F018FBE5
:104D30000446214625A000F003FE002010B0BDE887
:104D4000F087000074696D6572000000252D2A2E21
:104D5000732020706572696F646963202020746914
:104D60006D656F757420202020202020666C61679F
:104D70000A000000202D2D2D2D2D2D2D2D2D2D2027
:104D80002D2D2D2D2D2D2D2D2D2D202D2D2D2D2D60
:104D90002D2D2D2D2D2D0A00252D2A2E2A73203064
:104DA0007825303878203078253038782000000099
:104DB0006163746976617465640A000064656163A7
:104DC000746976617465640A00000000637572722C
:104DD000656E74207469636B3A3078253038780AD0
:104DE0000000000003E04FF47A7001F0D3F9FAE715
:104DF00010B5044600F0ACFBFFF7F4FF10BD000057
:104E000010B51CA000F09CFD1F4801781FA000F009
:104E100097FD1D48007800F0010010B121A000F0BE
:104E20008FFD1948007800F0020010B120A000F0BA
:104E300087FD1548007800F0080010B11FA000F0B1
:104E40007FFD1148007800F0100010B11EA000F0A6
:104E500077FD0D48007800F0800030B10A480C3032
:104E600001681CA000F06CFD02E01EA000F068FDCF
:104E700010BD00006D656D206D616E616765206617
:104E800061756C743A0A000028ED00E05343425FFC
:104E9000434653525F4D4653523A3078253032588C
:104EA000200000004941434356494F4C2000000078
:104EB0004441434356494F4C200000004D554E534A
:104EC000544B4552522000004D53544B45525220F2
:104ED000000000005343422D3E4D4D41523A2530D3
:104EE00038580A000A00000010B50446082C2DD2DC
:104EF000DFE804F004090E13181D222700211548CD
:104F0000FDF714FC23E004211248FDF70FFC1EE01E
:104F100008211048FDF70AFC19E00C210D48FDF7A7
:104F200005FC14E000210C48FDF700FC0FE0042113
:104F30000948FDF7FBFB0AE008210748FDF7F6FBEF
:104F400005E00C210448FDF7F1FB00E000BF00BFC5
:104F500010BD0000B0010020F8010020082925D272
:104F6000DFE801F004080C1014181C20114A126824
:104F700050631CE00F4A1268906318E00D4A1268F3
:104F8000D06314E00B4A1268106410E00A4A1268F9
:104F900050630CE0084A1268906308E0064A126801
:104FA000D06304E0044A1268106400E000BF00BF50
:104FB00070470000B0010020F801002010B5044641
:104FC000082C2DD2DFE804F004090E13181D222747
:104FD00000211548FDF724FC23E004211248FDF7C9
:104FE0001FFC1EE008211048FDF71AFC19E00C21F7
:104FF0000D48FDF715FC14E000210C48FDF710FCEE
:105000000FE004210948FDF70BFC0AE008210748DE
:10501000FDF706FC05E00C210448FDF701FC00E06B
:1050200000BF00BF10BD0000B0010020F80100204B
:105030002DE9F04781460026002799F8000028B99D
:105040000021084600F0A8F8BDE8F0871B48046876
:1050500027E006221AA12068FBF74CF900B11FE0F7
:10506000206800F106084846FBF734F982465246AC
:1050700041464846FBF73EF988B926B947463846C7
:10508000FBF728F906464146384601F0CBFC0546B9
:10509000B54200DA2E4641460BA000F051FC00BF9D
:1050A00008340A4800688442D3D327B132463946CF
:1050B000484600F05CFF00BFC6E700001C0000206F
:1050C0005F5F636D645F000025730A0020000020AD
:1050D00038B504460D4601E0641C6D1E207820287A
:1050E000FAD020780928F7D00DB9002038BD6A46DB
:1050F00029462046FEF700FE08B90098F6E720464C
:1051000000E0401C0178202902D001780029F8D164
:1051100000210170214603A000F012FC4FF0FF3087
:10512000E4E7000025733A20636F6D6D616E6420C3
:105130006E6F7420666F756E642E0A002DE9F04163
:1051400006460D4600271048046815E006220FA108
:105150002068FBF7CFF800B10DE02168881D2A46D2
:105160003146FBF7C7F828B9A81D2168085C08B9C3
:10517000676805E000BF0834064800688442E5D34C
:1051800000BF3846BDE8F0811C0000205F5F636D02
:10519000645F00002000002070B505460E460EA09A
:1051A00000F0CEFB134804680DE0062212A120682F
:1051B000FBF7A0F800B105E02068811D10A000F009
:1051C000BFFB00BF08340F4800688442EDD30EA037
:1051D00000F0B6FB002070BD52542D54687265611A
:1051E00064207368656C6C20636F6D6D616E6473B1
:1051F0003A0A00001C0000205F5F636D645F0000DE
:1052000025732000200000200A00000001207047C4
:105210002DE9F04782460E46904654460025002769
:1052200055E003E000202070641C6D1C20782028CD
:1052300002D02078092801D1B542F3D3082F12D328
:1052400026A000F07DFB4FF0000906E058F8291079
:105250002AA000F075FB09F10109B945F6D326A093
:1052600000F06EFB35E0B54200D332E02078222812
:105270001CD1641C6D1C48F827407F1C09E0207875
:105280005C2804D16078222801D1641C6D1C641C48
:105290006D1C2078222801D0B542F0D3B54200D34E
:1052A00017E000202070641C6D1C10E048F82740B7
:1052B0007F1C01E0641C6D1C2078202804D020781D
:1052C000092801D0B542F5D3B54200D301E0B5427B
:1052D000A7D300BF3846BDE8F0870000546F6F20A9
:1052E0006D616E7920617267732021205765206F90
:1052F0006E6C79205573653A0A0000002573200012
:1053000010B5FCF715F9FEF70BF9FDF705FDFDF7F4
:10531000CBFCFDF79BFCFDF7A7FDFDF72BFEFDF792
:105320009BFEFDF703FFFDF76BFFFDF7BDFFFEF7EB
:105330000FF8FDF7F1FFFDF771FDFBF727FB10BD3F
:1053400010B5044602E004A000F0FAFA201EA4F111
:105350000104F8D110BD00002D0000002DE9F04F30
:1053600086B00D469C46DDE9106401960F9B04F063
:105370004008B8F1000F02D0DFF8708101E0DFF8DB
:105380007081CDF8008004F01008B8F1000F01D052
:1053900024F0010404F00108B8F1000F02D04FF02E
:1053A000300801E04FF02008C246002704F0020850
:1053B000B8F1000F11D0002A02DA2D2752420CE07A
:1053C00004F00408B8F1000F01D02B2705E004F029
:1053D0000808B8F1000F00D02027002142B94FF093
:1053E000300B8846491C0DF1080909F808B01DE08A
:1053F0001AE0E146B9F10A0F08D14FF00A0BB2FBEF
:10540000FBFE0BFB1E28B2FBFBF202E002F00F08D2
:10541000120900BFDDF8009019F808B08846491C51
:105420000DF1080909F808B0002AE2D1B14200DD07
:105430000E469B1B04F01108B8F1000F10D117B1F4
:10544000002B00DD5B1E06E0A84203D24FF02008CF
:1054500080F80080401CB3F10008A3F10103F3DCE5
:1054600027B1A84200D207705B1E401C04F0100850
:10547000B8F1000F0AD104E0A84201D280F800A0E0
:10548000401CB3F10008A3F10103F5DC06E0A842DB
:1054900003D24FF0300880F80080401CB046761EE2
:1054A0008845F4DC08E0A84205D20DF1080818F898
:1054B000018080F80080401CB1F10008A1F10101D9
:1054C00004DDDDF80480B8F1000FECD106E0A8425D
:1054D00003D24FF0200880F80080401CB3F1000890
:1054E000A3F10103F3DC06B0BDE8F08FB76F00084D
:1054F000A66F00087FB50A4C14200A214FF4806281
:10550000084BCDE90032CDE902100023064A07A17D
:10551000204600F025FE0546204600F08BFE7FBDAC
:10552000E0160020E0120020F14D00086D61696E68
:105530000000000010B5044C02E020688047241DE4
:1055400002488442F9D310BD50700008587000081A
:1055500010B5044C02E020688047241D02488442B4
:10556000F9D310BD587000086870000810B5FAF73C
:10557000FBFD044604480088401C00B20249088034
:105580002046FAF7F5FD10BD6C00002010B5FAF7C3
:10559000EBFD04460C480088401E00B20A49088012
:1055A0000846B0F9000000280ADC002008802046E8
:1055B000FAF7DEFD0548006828B100F067FB02E05D
:1055C0002046FAF7D5FD10BD6C00002070000020C9
:1055D00010B5FDF7E7FF064800684FF47A71B0FB9D
:1055E000F1F42046FEF700FBFFF7A4FF10BD00001A
:1055F0000C00002008B50020009004E04FF0FF31BF
:10560000054800F011FC6946044800F0CEFA012874
:10561000F4D19DF8000008BD4004002034040020AF
:1056200070B50446204600F099FC85B2FF232A4657
:1056300021460248FDF7A1FA70BD0000A00300203A
:1056400070B505462C1D3048006838B128462E49F3
:1056500009688847064606B970BD00BF2BA0E16BFC
:1056600000F06EF92DA0216A00F06AF92FA0616A9E
:1056700000F066F931A0A16A00F062F933A0E16A96
:1056800000F05EF935A0216800F05AF937A0616892
:1056900000F056F939A0A16800F052F93BA0E1688A
:1056A00000F04EF93DA0216900F04AF93FA0616980
:1056B00000F046F941A0A16900F042F943A0E16978
:1056C00000F03EF945A0216B00F03AF947A0616B6C
:1056D00000F036F949A0A16B00F032F9287800F00B
:1056E000040048B100F07EFD0646314647A000F0B8
:1056F00027F9FFF7D5F902E04CA000F021F9FEF7F9
:1057000085FF00BFFEE700009C0000207073723A26
:10571000203078253038780A000000007230303AA6
:10572000203078253038780A000000007230313A95
:10573000203078253038780A000000007230323A84
:10574000203078253038780A000000007230333A73
:10575000203078253038780A000000007230343A62
:10576000203078253038780A000000007230353A51
:10577000203078253038780A000000007230363A40
:10578000203078253038780A000000007230373A2F
:10579000203078253038780A000000007230383A1E
:1057A000203078253038780A000000007230393A0D
:1057B000203078253038780A000000007231303A05
:1057C000203078253038780A000000007231313AF4
:1057D000203078253038780A000000007231323AE3
:1057E000203078253038780A00000000206C723AAA
:1057F000203078253038780A000000002070633AA5
:10580000203078253038780A000000006861726422
:10581000206661756C74206F6E20746872656164B7
:105820003A2025730D0A0D0A0000000068617264B9
:10583000206661756C74206F6E2068616E646C65A3
:10584000720D0A0D0A000000F0B504460D4616461A
:10585000301D20F0070040380146002203E00C4FC5
:1058600041F82270521C102AF9D30D624FF0000C3F
:10587000C1F824C0C1F828C0C1F82CC0C1F830C09C
:105880004B638C634FF0807CC1F83CC0F0BD0000DE
:10589000EFBEADDE10B5FAF767FC044604480078A9
:1058A000401C034908702046FAF762FC10BD000056
:1058B0003800002010B5FAF757FC04460448007879
:1058C000401E034908702046FAF752FC10BD000044
:1058D000380000202DE9F04105460C469046204650
:1058E00000F0BEFCB8F1000F03D0B8F1010F23D1D6
:1058F00005E004F11C01284600F04EF81CE02E687B
:105900000FE0A6F11C0794F83D0097F83D1088427F
:1059100006DA04F11C0107F11C0000F03DF802E07A
:105920003668AE42EDD100BFAE4204D104F11C0195
:10593000284600F031F800BF00BF0020BDE8F0812C
:105940000FB438B505A800907F210848009B049A41
:1059500000F03AFE04467F2C00D97F240348FFF76D
:105960005FFE0020009038BC5DF814FB701800202A
:10597000406000607047406000607047026851609E
:1059800002680A60016048607047026851600268FE
:105990000A600160486070474268116042684A606E
:1059A00041600860704701460868884201D10120C3
:1059B00070470020FCE701460868884201D10120B9
:1059C00070470020FCE7014600200A4601E012680B
:1059D000401C13688B42FAD17047D0E90021516016
:1059E000D0E90012116040600060704770B50C464D
:1059F000014623468B4210D29D188D420DD9114489
:105A0000134405E05D1E2B462E784D1E29462E7050
:105A1000151EA2F10102F5D108E003E013F8015BC5
:105A200001F8015B151EA2F10102F7D170BDF0B5BE
:105A30000C460546E6B2042A15D300F0030797B9D1
:105A4000014646EA062343EA034304E008C108C1CD
:105A500008C108C1103A102AF8D201E008C1121F8B
:105A6000042AFBD20D4601E005F8016B171EA2F1D6
:105A70000102F9D1F0BD70B5044600202074FAF798
:105A800073FB054604F11400D0E900215160D0E910
:105A9000001211604060006000BF2846FAF768FB02
:105AA00070BD0000024600210AE0074800EB01102B
:105AB0000078904203D1044800EB01107047491C64
:105AC0000329F2DB0020F9E73C0000202DE9F04734
:105AD00004460D46904600262846FFF7E3FF07469A
