:020000040800F2
:10000000B0140020450100080D3000080F02000860
:1000100051010008FD0800089137000800000000A9
:100020000000000000000000000000005701000870
:100030002109000800000000970100089531000820
:100040005F0100085F0100085F0100085F01000810
:100050005F0100085F0100085F0100085F01000800
:100060005F0100085F0100085F0100080109000846
:10007000110900085F0100085F0100085F01000826
:100080005F0100085F0100085F0100085F010008D0
:100090005F0100085F0100085F0100085F010008C0
:1000A0005F0100085F0100085F0100085F010008B0
:1000B0005F0100085F0100085F0100085F010008A0
:1000C0005F0100085F0100085F0100085F01000890
:1000D0005F0100085F0100085F0100082937000880
:1000E0005F0100085F0100085F0100085F01000870
:1000F0005F0100085F0100085F0100085F01000860
:100100005F0100085F0100085F0100085F0100084F
:100110005F0100085F0100085F0100085F0100083F
:100120005F0100085F0100085F0100085F0100082F
:10013000DFF80CD000F0F2F900480047A1080008F1
:10014000B01400200648804706480047FEE7FEE757
:10015000FEE7FEE7FEE7FEE7FEE7FEE7FEE7FEE777
:10016000CD32000831010008EFF3108072B67047FD
:1001700080F310887047334A1368012B04D04FF086
:1001800001031360304A1060304A116030484FF06C
:10019000805101607047EFF3108272B62948016800
:1001A00091B14FF0000101602748016829B1EFF3D8
:1001B000098121E9F00F0068016024490968096894
:1001C000B1E8F00F81F3098882F310884EF0040E35
:1001D00070471E4908601C494FF00000086019492B
:1001E0004FF0010008601B484FF47F01D0F8002059
:1001F00041EA0201016016484FF080510160164843
:100200000068006880F3088861B662B670471EF027
:10021000040F0CBFEFF30880EFF3098020E9F00F23
:1002200040F804ED1EF0040F0CBF80F3088880F343
:10023000098800B504F072FE5DF804EB4EF0040E80
:10024000704700008C0000208400002088000020FF
:1002500004ED00E020ED00E008ED00E040EA0103DD
:100260009B0703D009E008C9121F08C0042AFAD26C
:1002700003E011F8013B00F8013B521EF9D2704730
:10028000D2B201E000F8012B491EFBD270470022D8
:10029000F6E710B513460A4604461946FFF7F0FF85
:1002A000204610BD421E12F8013F002BFBD111F871
:1002B000013B02F8013B002BF9D1704710B5044611
:1002C00004E00B7800F8013B03B1491C521EF8D240
:1002D000204610BD421C10F8011B0029FBD1801ADA
:1002E0007047034611F8012B00F8012B002AF9D1C1
:1002F0001846704730B505460020034600E05B1CF9
:10030000934205D2EC5CC85C201A01D1002CF6D1D6
:1003100030BD00000FB400B58DB010A909900B904E
:1003200000914FF0FF300A9000200C900548069095
:10033000054807906A4609A80F9900F0C1F80DB06A
:100340005DF814FBDD040008FB0400082DE9FF5FE5
:100350001D464FF0FF3BD5E9014691465F464FF001
:100360000008A9697F1C01988847296A8246884746
:100370000028F6D1BAF1FF3F0CD024F4C064002E5F
:1003800019DD600614D5BAF12B0F09D0BAF12D0F83
:100390000ED103E0584604B0BDE8F09F44F48064F9
:1003A000A9697F1C01988847761E8246002E02DDCF
:1003B000BAF1300F03D0B9F1000F26D032E0A969AD
:1003C000761E44F400747F1C019888478246002EF4
:1003D00005DDBAF1780F06D0BAF1580F03D0B9F1A4
:1003E000000F10D01EE0B9F1000F02D0B9F1100FCC
:1003F00018D1A969761E24F400747F1C01988847DF
:100400008246102002E0082000E00A20814609E030
:1004100008FB0908A969761E44F400747F1C019842
:1004200088478246002E05DD4946504600F034F8E4
:100430000028EDDAE96901988847A00502D46FF039
:100440000100A8E7E00725D1600613D5600502D5B5
:10045000C8F1000000E0404629680A1D2A600968CA
:10046000220501D5087015E0220701D5088011E0AA
:1004700008600FE02868011D29600068210502D589
:1004800080F8008006E0210702D5A0F8008001E096
:10049000C0F8008038467EE73A2800D2303820F095
:1004A0002002412A01D3A2F13700884201D34FF044
:1004B000FF30704702681144137801601846704796
:1004C000D160044951610449116200211161114652
:1004D00000F03CB8B504000841050008426842B18C
:1004E000016811F8013B23B1521EC0E90012184601
:1004F00070470121C160881E704742685AB1C368C5
:10050000016843B983688B4205D0491E521CC0E97B
:100510000012002070474FF0FF307047064C074D27
:1005200006E0E06840F0010394E8070098471034C3
:10053000AC42F6D3FFF700FE3068000850680008B0
:10054000C0B24FF4F05100F097B900002DE9F34F1D
:100550008BB04FF0000801F10C000C464FF0010B7E
:1005600046460DF1080A0190626901210198904701
:10057000051E2DD0252D2CD0216A8847C0B1626977
:10058000012101989047216A88470028F7D1411E30
:1005900062690198904700E0761CA1690B98884732
:1005A000216A88470028F7D1E1690B988847DBE783
:1005B000A1690B9888470746A84201D1761CD3E76A
:1005C000E1690B9888477F1C02D1B8F1000F6FD00A
:1005D00046E1002762693D463946019890472A283E
:1005E00004D162690121019890470125DFF88492C6
:1005F0006269012101989047A0F130010A290AD2CD
:100600004F45E5DC07EB870100EB4107303FDFD4C6
:1006100045F01005ECE7E90601D46FF000476C28BF
:100620000AD04C2814D0682815D06A280DD0742818
:100630001CD07A281AD01DE06269012101989047E8
:100640006C2802D045F0040514E045F002050DE0E9
:1006500045F020050AE06269012101989047682869
:1006600002D045F0080505E045F400656269012106
:1006700001989047C4E9015765283DD019DC5828F6
:100680007AD00CDC452837D004DC252826D0412838
:1006900031D131E046282FD047282CD12CE05B28DF
:1006A00077D0612828D063287CD0642823D15AE0F1
:1006B000D0E06F2848D008DC66281DD067281BD002
:1006C000692821D06E2816D127E0702845D07328DC
:1006D00068D0752847D078280DD14DE0A1690B98D6
:1006E0008847054625283FF469AFE1690B9888479C
:1006F0006D1C3FF46AAFB3E023466A466FF0010019
:100700000B99AFF300809EE045F040006060A807C1
:1007100023464FF0000236D43EE0E8077FF447AFAF
:100720002068011D21600068290501D506701BE7BE
:10073000290701D5068017E7A90703D5F117C0E9F6
:10074000006111E706600FE745F040006060A80710
:1007500023464FF0080216D41EE040F60E0125EAAB
:100760000100606016E045F040006060A807234685
:100770004FF00A0207D40FE045F040006060A80780
:1007800008D5234610226FF001000B99AFF30080CB
:1007900059E007E0234610226FF001000B99FFF7A4
:1007A000D5FD50E04FF000094F464B46632802D07C
:1007B0005B2806D040E0E80601D40120A0600127B4
:1007C0003AE062690121019890475E2805D14FF017
:1007D00001096269494601989047216939B90021A8
:1007E0000A46534643F82120491C0829FADBB0B3D6
:1007F000216969B9C11700EBD16253110AEB83017A
:1008000022F01F02821A01200B68904003430B6004
:1008100062690121019890475D28E8D1B9F1000F84
:1008200009D00020514651F82020D24341F8202021
:10083000401C0828F7DB02AB224600976FF001004E
:100840000B99AFF3008000280CDA401C08D1BBF1F3
:10085000000F05D04FF0FF300DB0BDE8F08FFFE77F
:100860004046F9E7E90701D108F1010806444FF0D5
:10087000000B79E6CCCCCC0C7F2801D9002208E013
:10088000064A02EB5002C007127800D1120902F0AA
:100890000F020120904008407047000008670008E0
:1008A00010B505F09FFC002010BD70B50446002572
:1008B0002068806800F00100F0B12068806820F0B6
:1008C00001002168886000F0ABFD05460EE000F0F5
:1008D000A7FD401B022809D9A06A40F01000A062C1
:1008E000E06A40F00100E062012070BD206880688D
:1008F00000F001000028EAD10020F6E700BFFEE783
:1009000010B5024800F0CAF910BD0000C400002074
:1009100010B5024800F0C2F910BD000060010020CF
:100920007047704710B5102209490A4804F0D7FDF6
:1009300000231A4608A10B4804F0AAFE0A480068E2
:10094000C06840F0200008490968C86010BD000078
:1009500094030020A40300207368656C6C5F7278B8
:1009600000000000B00300205403002038B5024608
:1009700000230020009000BF92F82400012801D13C
:10098000022038BD012082F8240000BF48680728F3
:1009900012D21068406B0C79641E04EB84051F248E
:1009A000AC40A0430D796D1E05EB85050C68AC408D
:1009B00020431468606327E048680D2812D210684D
:1009C000006B0C79E41F04EB84051F24AC40A043AA
:1009D0000D79ED1F05EB85050C68AC4020431468CC
:1009E000206311E01068C06A0C790D3C04EB8405AB
:1009F0001F24AC40A0430D790D3D05EB85050C6827
:100A0000AC4020431468E06208680A2812D31068DA
:100A1000C0680C780A3C04EB44050724AC40A043B2
:100A20000D780A3D05EB45058C68AC402043146801
:100A3000E0600FE0106800690C7804EB44050724BF
:100A4000AC40A0430D7805EB45058C68AC402043D5
:100A5000146820610868102802D00868112827D17E
:100A6000174C1068A0421ED11068806800F4000086
:100A7000F0B91068806840F400001468A06008684D
:100A8000102815D10F4800680F4CB0FBF4F000EBB4
:100A900080004000009002E00098401E0090009806
:100AA0000028F9D104E0906A40F020009062012310
:100AB00000BF002082F8240000BF184661E7000054
:100AC000002401400C00002040420F002DE9F041BD
:100AD0000446002700250026A84614B90120BDE8D9
:100AE000F081A06810B1207D00B100BFA06A30B9CC
:100AF0000020E06284F82400204600F097F82046A9
:100B0000FFF7D3FE0746A06A00F01000002873D15B
:100B1000002F7ED1A06A20F4885040F00200A0622D
:100B20003F4AD4E90001904208D1E069B0F5402F76
:100B300002D14FF4002002E0E06900E0E0690143E7
:100B4000207B41EA40000643A068B0F5807F02D0D8
:100B5000A068012802D14FF4807000E00020054316
:100B6000207D012811D1207B38B9A069401E4FF4A7
:100B7000006141EA4030054307E0A06A40F02000F0
:100B8000A062E06A40F00100E0622068406820F462
:100B900069402843216848602068806821490840EE
:100BA000304321688860A068B0F5807F02D0A068DB
:100BB000012802D14FF4807000E00020B0F5807F62
:100BC00003D1208A401E4FEA00582068C06A20F4F2
:100BD000700040EA08002168C862206880681249F5
:100BE0000840B04209D10020E062A06A20F0020073
:100BF00040F00100A06211E00BE0A06A20F00200CA
:100C000040F01000A062E06A40F00100E0620127BD
:100C100004E0A06A40F01000A062012738465EE7B9
:100C2000003C0140FDF7E1FFFE0E1FFF38B5044612
:100C300016492068884228D100BF1548806940F4D1
:100C40000070134988610846806900F400700090C4
:100C500000BF00BF0F481049086000204860002115
:100C60000D4881608021C1604900016189004161B6
:100C700000218161C16100F0DDF908B1FFF751FE8B
:100C800000BF05482062446200BF38BD0024014017
:100C90000010024008000240C400002070B5044665
:100CA000E06B05682068066894F8401004208840CE
:100CB0002840002875D006F004000028FAD02068EB
:100CC000006800F0200028B92068006820F00400C7
:100CD00021680860D5492068884254D9D3497839B9
:100CE0002068884201D1042049E0D0496439206855
:100CF000884201D1402042E0CC49503920688842E6
:100D000001D100153BE0C9493C392068884202D135
:100D10004FF4804033E0C54928392068884202D129
:100D20004FF480202BE0C14914392068884202D159
:100D30004FF4800023E0BD492068884201D1C004FF
:100D40001DE0BB492068884201D1042017E0B84962
:100D500014312068884201D1402010E0B449283184
:100D60002068884201D1001509E0B1493C31206872
:100D7000884202D14FF4804001E04FF48020AC491A
:100D8000091F086054E0A94978392068884201D1D8
:100D900004204AE0A54964392068884202D14020F5
:100DA00043E04CE0A14950392068884201D1001548
:100DB0003BE09E493C392068884202D14FF4804094
:100DC00033E09A4928392068884202D14FF48020C4
:100DD0002BE0964914392068884202D14FF48000F4
:100DE00023E092492068884201D1C0041DE0904967
:100DF0002068884201D1042017E08D491431206811
:100E0000884201D1402010E0894928312068884279
:100E100001D1001509E086493C312068884202D1A1
:100E20004FF4804001E04FF48020804980394860D1
:100E3000E06A002802D02046E16A8847F4E094F88E
:100E40004010022088402840002871D006F002009F
:100E50000028FAD02068006800F0200040B920681F
:100E6000006820F00A0021680860012084F8210051
:100E70006E492068884254D96C4978392068884284
:100E800001D1022049E0694964392068884201D1D2
:100E9000202042E0654950392068884201D1401540
:100EA0003BE062493C392068884202D14FF400504F
:100EB00033E05E4928392068884202D14FF400307F
:100EC0002BE05A4914392068884202D14FF40010AF
:100ED00023E056492068884201D180041DE054492E
:100EE0002068884201D1022017E05149143120685E
:100EF000884201D1202010E04D49283120688842E5
:100F000001D1401509E04A493C312068884202D1AC
:100F10004FF4005001E04FF400304549091F0860CC
:100F200054E0424978392068884202D102204AE0E0
:100F300057E03E4964392068884201D1202042E0D0
:100F40003A4950392068884201D140153BE0374981
:100F50003C392068884202D14FF4005033E03349D5
:100F600028392068884202D14FF400302BE02F4905
:100F700014392068884202D14FF4001023E02B4935
:100F80002068884201D180041DE0294920688842F8
:100F900001D1022017E0264914312068884201D18E
:100FA000202010E0224928312068884201D14015D4
:100FB00009E01F493C312068884202D14FF40050BB
:100FC00001E04FF4003019498039486000BF00202B
:100FD00084F8200000BFA06A30B32046A16A884789
:100FE00022E094F84010082088402840E0B106F044
:100FF0000800C8B12068006820F00E002168086071
:1010000094F8401001208840E16B48600120A06303
:1010100084F8210000BF002084F8200000BF206B6E
:1010200010B12046216B884770BD0000800002404F
:10103000080402400146002209B9012070471E4BF6
:10104000086898420BD21D4B0868C01A1423B0FBE5
:10105000F3F08000086419480838C8630AE0164BAA
:101060000868C01A1423B0FBF3F08000086412482B
:101070000838C863022081F821000868026843F636
:10108000F0708243D1E901031843CB6818430B6920
:1010900018434B6918438B691843CB6918430243C3
:1010A0000868026000208863012081F82100002088
:1010B00081F8200000BFC1E7080402400800024098
:1010C0002DE9F847024600239C467BE14FF00108DA
:1010D00008FA03F4D1F8008008EA0400A0427DD1A8
:1010E000DFF8F4A2D1F80480A8EB0A09D0453AD081
:1010F00014DCB8F1030F50D009DCB8F1000F31D087
:10110000B8F1010F1CD0B8F1020F49D120E0B8F1BD
:10111000110F18D0B8F1120F42D11EE0B9F5881F97
:1011200025D006DCB9F5803F20D0B9F5801F37D136
:101130001AE0B9F5001F18D0B9F5041F30D117E037
:10114000D1F80CC02DE0D1F80C8008F1040C28E097
:10115000D1F80C8008F1080C23E0D1F80C8008F1DC
:101160000C0C1EE000BF00BF00BF00BF00BF00BFEF
:10117000D1F80880B8F1000F02D14FF0040C0BE059
:10118000D1F80880B8F1010F03D14FF0080C1461B9
:1011900002E04FF0080C546103E04FF0000C00E057
:1011A00000BF00BFFF2801D8904601E002F104080B
:1011B0004646FF2802D84FEA830803E0A3F1080857
:1011C0004FEA88084746D6F800804FF00F0909FA21
:1011D00007F928EA09080CFA07F900E07AE048EA7A
:1011E0000908C6F80080D1F8048008F08058B8F1EA
:1011F000805F6FD100BFDFF8E481D8F8188048F035
:101200000108DFF8D891C9F81880C846D8F81880C6
:1012100008F00108CDF8008000BF00BF4FEAB938E0
:101220004FEA930958F829504FEA83784FEA187922
:101230004FF00F0808FA09F825EA0805DFF8A08141
:10124000424502D14FF0000824E0DFF89881424582
:1012500002D14FF001081DE0DFF88C81424502D138
:101260004FF0020816E0DFF88481424502D14FF0CA
:1012700003080FE0DFF87881424502D14FF00408FF
:1012800008E0DFF87081424502D14FF0050801E027
:101290004FF006084FEA83794FEA197908FA09F8FE
:1012A00048EA0505DFF850814FEA930948F82950CC
:1012B000D1F8048008F48038B8F5803F0BD1DFF80E
:1012C0003C81D8F8008048EA0008DFF83091C9F87E
:1012D00000800AE075E0DFF82481D8F8008028EA71
:1012E0000008DFF81891C9F80080D1F8048008F4EC
:1012F0000038B8F5003F0ED1DFF8008108F104088E
:10130000D8F8008048EA0008DFF8F09009F10409F5
:10131000C9F800800DE0DFF8E48008F10408D8F88F
:10132000008028EA0008DFF8D49009F10409C9F820
:101330000080D1F8048008F48018B8F5801F0ED121
:10134000DFF8B88008F10808D8F8008048EA0008FB
:10135000DFF8A89009F10809C9F800800DE0DFF86E
:101360009C8008F10808D8F8008028EA0008DFF817
:101370008C9009F10809C9F80080D1F8048008F4BC
:101380000018B8F5001F0ED1DFF8708008F10C08C6
:10139000D8F8008048EA0008DFF8609009F10C09ED
:1013A000C9F800800DE0DFF8548008F10C08D8F887
:1013B000008028EA0008DFF8449009F10C09C9F818
:1013C00000805B1CD1F8008028FA03F8B8F1000F08
:1013D0007FF47CAEBDE8F8870000111000100240D9
:1013E00000080140000C01400010014000140140C1
:1013F00000180140001C01400800014000040140A9
:1014000010B5C26821EA020302EA010443EA044378
:10141000036110BD0AB1016101E00B040361704773
:1014200001480068704700000000002010B508481F
:10143000006840F0100006490860032000F0ACF896
:10144000002000F007F800F02BF8002010BD00008D
:101450000020024070B504460E4800784FF47A71BF
:10146000B1FBF0F00C490968B1FBF0F5284600F03B
:101470006BFD08B1012070BD102C07D2002221465F
:10148000501E00F04BF80548046001E00120F2E72F
:101490000020F0E7080000200C00002004000020DD
:1014A00008B500BF1348806940F001001149886108
:1014B0000846806900F00100009000BF00BF00BF37
:1014C0000846C06940F08050C8610846C06900F015
:1014D0008050009000BF00BF052000F05DF800BF05
:1014E0000549486820F0E06040F00070486000BFA7
:1014F00008BD0000001002400000014001460846FF
:10150000002809DB00F01F0301229A4043099B00D9
:1015100003F1E023C3F8002100BF70472DE9F05F1D
:1015200080460D461646002702F04CF9074639461C
:101530002A46334601F00700C0F1070ABAF1040F4A
:1015400002D94FF0040A01E0C0F1070AD14600F1C8
:10155000040ABAF1070F02D24FF0000A01E0A0F12D
:10156000030AD4464FF0010A0AFA09FAAAF1010A5D
:101570000AEA020A0AFA0CFA4FF0010B0BFA0CFB0A
:10158000ABF1010B0BEA030B4AEA0B042146404680
:1015900002F020F9BDE8F09F00BF00F00702064B03
:1015A00019684FF6FF031940044B0B4343EA02212D
:1015B000014B196000BF70470CED00E00000FA0518
:1015C000F8B5044600260025207800F00100002828
:1015D0006BD000274348C06900F0805070B900BF4D
:1015E0004048C06940F080503E49C8610846C06923
:1015F00000F08050009000BF00BF01273A4800680B
:1016000000F48070B0B93848006840F48070364902
:101610000860FFF705FF064606E0FFF701FF801BA5
:10162000642801D90320F8BD2F48006800F48070B9
:101630000028F2D02B48006A00F440752DB3A08832
:1016400000F44070A84220D02648006A20F440757B
:10165000012026490860002008602248056205F044
:10166000010090B1FFF7DCFE064608E0FFF7D8FE68
:10167000801B41F28831884201D90320D3E7194801
:10168000006A00F002000028F0D01648006A20F43A
:1016900040706168084313490862012F04D108466D
:1016A000C06920F08050C86100BF207800F00200BF
:1016B000022807D10B48406820F44040A168084345
:1016C00008494860207800F01000102807D105482C
:1016D000406820F4800061690843024948600020A6
:1016E000A1E70000001002400070004040044242A8
:1016F00070B504460D460CB9012070BD5A4800680B
:1017000000F00700A8420ED25748006820F00700FA
:101710002843554908600846006800F00700A842C1
:1017200001D00120E9E7207800F0020002281DD155
:10173000207800F00400042805D14C48406840F4AB
:10174000E0604A494860207800F00800082805D188
:101750004648406840F46050444948604348406807
:1017600020F0F000A168084340494860207800F06C
:10177000010078B36068012806D13C48006800F495
:10178000003090B90120B8E76068022806D13748D8
:10179000006800F0007040B90120AEE733480068EF
:1017A00000F0020008B90120A7E73048406820F0A7
:1017B0000300616808432D494860FFF731FE064683
:1017C00009E0FFF72DFE801B41F28831884202D9E3
:1017D000032092E707E02548406800F00C006168AC
:1017E000B0EB810FEDD12048006800F00700A8425F
:1017F0000ED91D48006820F0070028431A490860E8
:101800000846006800F00700A84201D0012074E7F4
:10181000207800F00400042807D11448406820F420
:10182000E060E168084311494860207800F0080052
:10183000082808D10D48406820F46050216940EA2A
:10184000C1000A49486000F03FF808494968C1F3FF
:101850000311074A515CC840064908600648006801
:10186000FFF7F8FD002048E700200240001002408A
:10187000EA6400080C000020040000200148006811
:10188000704700000C00002000B5FFF7F7FF044987
:101890004968C1F30221034A515CC84000BD000001
:1018A00000100240FA64000800B5FFF7E7FF0449A2
:1018B0004968C1F3C221034A515CC84000BD000021
:1018C00000100240FA640008F0B585B00FF26C0C0D
:1018D0009CE8E01001A8A0E8E0101CA52D68009588
:1018E00000210022002300240020194D696801F026
:1018F0000C05F5B1042D02D0082D19D101E01548D1
:1019000019E001ADC1F38346AC5D01F4803555B1FA
:101910000F4D6D68C5F340451DF805200D4D65431D
:10192000B5FBF2F302E00C4D04FB05F3184602E0B0
:1019300000BF084800BF00BF05B0F0BD02030405AA
:10194000060708090A0B0C0D0E0F1010010200000B
:101950000010024000127A0000093D00F8B504466C
:101960000CB90120F8BD207800F00100002878D0E3
:10197000F848406800F00C0004280CD0F548406896
:1019800000F00C00082811D1F248406800F48030C3
:10199000B0F5803F0AD1EF48006800F4003000281D
:1019A0005FD0606800285CD10120DBE700BF606881
:1019B000B0F5803F06D1E748006840F48030E54943
:1019C000086028E0606858B9E248006820F4803078
:1019D000E04908600846006820F4802008601AE0AA
:1019E0006068B0F5A02F0BD1DA48006840F4802081
:1019F000D84908600846006840F4803008600AE072
:101A0000D448006820F48030D24908600846006855
:101A100020F48020086000BF606888B1FFF700FDF7
:101A2000054606E0FFF7FCFC401B642801D90320B3
:101A300098E7C848006800F400300028F2D010E0B1
:101A4000FFF7EEFC054606E0FFF7EAFC401B6428C2
:101A500001D9032086E7BF48006800F40030002861
:101A6000F2D1207800F00200022857D1B94840682E
:101A700000F00C0050B1B748406800F00C00082896
:101A800018D1B448406800F4803098B9B148006873
:101A900000F0020020B12069012801D0012061E797
:101AA000AC48006820F0F800616940EAC100A9492B
:101AB000086033E02069E8B10120A7490860FFF71A
:101AC000AFFC054606E0FFF7ABFC401B022801D93E
:101AD000032047E79F48006800F002000028F2D08A
:101AE0009C48006820F0F800616940EAC10099490B
:101AF000086013E0002098490860FFF791FC054654
:101B000006E0FFF78DFC401B022801D9032029E7DE
:101B10009048006800F002000028F2D1207800F020
:101B2000080008282DD1A069B8B101208B490860B0
:101B3000FFF776FC054606E0FFF772FC401B022823
:101B400001D903200EE78348406A00F00200002814
:101B5000F2D0012001F00AFB13E000207F49086069
:101B6000FFF75EFC054606E0FFF75AFC401B022823
:101B700001D90320F6E67748406A00F00200002809
:101B8000F2D1207800F00400042873D100277148B6
:101B9000C06900F0805070B900BF6E48C06940F065
:101BA00080506C49C8610846C06900F080500090C0
:101BB00000BF00BF01276A48006800F48070B0B918
:101BC0006748006840F4807065490860FFF728FCAA
:101BD000054606E0FFF724FC401B642801D90320DA
:101BE000C0E65F48006800F480700028F2D000BFB3
:101BF000E068012806D15748006A40F001005549C5
:101C0000086227E0E06858B95248006A20F00100F5
:101C1000504908620846006A20F00400086219E092
:101C2000E06805280BD14B48006A40F004004949A0
:101C300008620846006A40F0010008620AE0454870
:101C4000006A20F00100434908620846006A20F05B
:101C50000400086200BFE068A0B1FFF7E1FB0546A1
:101C600009E0FFF7DDFB401B41F28831884202D9D1
:101C7000032077E622E03748006A00F002000028DF
:101C8000EFD012E0FFF7CCFB054608E0FFF7C8FBFA
:101C9000401B41F28831884201D9032062E62D4879
:101CA000006A00F002000028F0D1012F05D1294878
:101CB000C06920F080502749C86100BFE069C8B3FF
:101CC0002448406800F00C00082860D0E069022831
:101CD00048D1002020490866FFF7A2FB054606E030
:101CE000FFF79EFB401B022801D903203AE6194862
:101CF000006800F000700028F2D1206AB0F5803F43
:101D000007D11448406820F40030A1680843114905
:101D10004860D4E9080108430E49496821F4741168
:101D200008430C49486001200B490866FFF778FB1F
:101D3000054607E03DE0FFF773FB401B022801D991
:101D400003200FE60348006800F000700028F2D07E
:101D50002FE0000000100240000042428004424296
:101D600000700040002014490866FFF759FB054643
:101D700006E0FFF755FB401B022801D90320F1E5DF
:101D80000E48006800F000700028F2D111E0E06910
:101D9000012800D1E6E50948466806F48031206A4A
:101DA000814204D106F47011606A814201D00120A1
:101DB000D8E50020D6E500000000424200100240B5
:101DC00010B504460CB9012010BD606A38B96068CE
:101DD000B0F5827F00D105E00021E16102E0002141
:101DE000216161610021A16294F8510028B90020AD
:101DF00084F85000204600F043F8022084F8510097
:101E00002068006820F0400021680860A08800F485
:101E10008270218901F404410843A18901F4006121
:101E20000843217C01F002010843217D01F00101FA
:101E30000843218B01F400710843217F01F0380130
:101E400008432021095D01F080010843218D01F440
:101E500000510843216808600421A06901EA10408C
:101E6000216848602068C06920F400602168C8616A
:101E700000206065012084F851000020A4E70000E4
:101E800010B586B00446002002900390049005909F
:101E90002849206888424AD100BF2748806940F419
:101EA0008050254988610846806900F4805001907F
:101EB00000BF00BF00BF0846806940F00400886191
:101EC0000846806900F00400019000BF00BF202098
:101ED0000290022003900320059002A91748FFF703
:101EE000EFF84020029000200390049002A91348CC
:101EF000FFF7E6F812481349086000204860002107
:101F0000104881608021C160490001618900416100
:101F1000002181614FF40051C161FFF78BF808B1D6
:101F2000FEF7FFFC00BF0748E064446200BF06B054
:101F300010BD0000003001400010024000080140C8
:101F40001C0002406001002070B504462546681E52
:101F5000B0F1807F01D301200FE0681E4FF0E02137
:101F600048610F214FF0FF3001F034FC00204FF0AA
:101F7000E021886107200861002070BD10B503468C
:101F8000002200BF93F83C00012801D1022010BDBF
:101F9000012083F83C0000BF22F0FF00CC6840EA3B
:101FA000040222F440708C6840EA040222F480604B
:101FB0004C6840EA040222F400600C6840EA040223
:101FC00022F480500C6940EA040222F400504C696B
:101FD00040EA040222F48040CC6940EA0402186816
:101FE000426400BF002083F83C0000BF00BFCEE782
:101FF00030B502460B4600BF92F83C00012801D1E3
:10200000022030BD012082F83C0000BF022082F88F
:102010003D00106844681068816824F070041868F6
:10202000044310684460144D1068A84213D0134D47
:102030001068A8420FD01068B0F1804F0BD0104D3F
:102040001068A84207D00F4D1068A84203D00E4D6B
:102050001068A84205D121F080015868014310683A
:102060008160012082F83D0000BF002082F83C0022
:1020700000BF00BFC5E70000002C01400034014054
:102080000004004000080040000C004010B5044669
:102090000CB9012010BD94F83D0028B9002084F847
:1020A0003C00204600F026F8022084F83D00211D67
:1020B000206801F00DF9012084F8460000BF84F883
:1020C0003E0001213F20015540200155412001558E
:1020D00000BF00BF012084F8420043200155442086
:1020E00001554520015500BF012084F83D00002026
:1020F000D0E7000008B5364A016891420DD100BF13
:102100003449896941F40061324A91611146896913
:1021100001F40061009100BF59E00168B1F1804F06
:102120000DD100BF2B49C96941F00101294AD16194
:102130001146C96901F00101009100BF47E0264A3C
:10214000016891420DD100BF2249C96941F00201E5
:10215000204AD1611146C96901F00201009100BF16
:1021600035E01E4A016891420DD100BF1949C96985
:1021700041F00401174AD1611146C96901F0040117
:10218000009100BF23E0164A016891420DD100BFC3
:102190001049C96941F008010E4AD1611146C96967
:1021A00001F00801009100BF11E00E4A0168914260
:1021B0000DD100BF0749896941F40051054A916179
:1021C0001146896901F40051009100BF00BF08BDAC
:1021D000002C0140001002400004004000080040B4
:1021E000000C0040003401402DE9F04104460D464A
:1021F00000BF94F83C00012802D10220BDE8F08124
:10220000012084F83C0000BF022084F83D002068D3
:10221000866826F0770626F47F4620688660286860
:10222000502833D00CDC202850D004DC00284BD0C0
:10223000102851D149E0302849D040284CD139E00C
:1022400060282DD0702807D0B0F5805F03D0B0F59E
:10225000005F41D10DE040E0D5E902136A682068D3
:1022600001F095F82068866846F077062068866059
:1022700033E0D5E902136A68206801F088F8206825
:10228000806840F480402168886026E0EA686968D8
:10229000206801F06DF95021206801F083F81CE0FE
:1022A000EA686968206801F076F96021206801F029
:1022B00079F812E0EA686968206801F059F940216C
:1022C000206801F06FF808E000BF00BF00BF296878
:1022D000206801F067F800E000BF00BF012084F82B
:1022E0003D0000BF002084F83C0000BF00BF85E730
:1022F00010B586B00446002002900390049005902B
:1023000066492068884222D100BF6548806940F054
:102310004000634988610846806900F040000190F0
:1023200000BF00BF4FF4D4400290022003900590FC
:1023300002A95C48FEF7C4FE00BF5B49486820F074
:10234000C00040F0E06040F0C0004860A3E02068BA
:10235000B0F1804F39D100BF5148806940F008008A
:102360004F4988610846806900F00800019000BF6D
:1023700000BF00BF0846806940F00400886108463D
:10238000806900F00400019000BF00BF40F60840E3
:10239000029002200390059002A94448FEF790FEA7
:1023A0004FF40040029002200390059002A940489B
:1023B000FEF786FE00BF3C49486820F4407040F0BC
:1023C000E06040F44070486065E03A492068884227
:1023D00021D100BF3248806940F00800304988614F
:1023E0000846806900F00800019000BF00BF31205E
:1023F000029002200390059002A92C48FEF760FE8F
:1024000000BF2949486820F4406040F0E06040F493
:10241000006048603FE028492068884220D100BF22
:102420001F48806940F020001D4988610846806986
:1024300000F02000019000BF00BF4FF470400290F8
:1024400002200390059002A91C48FEF739FE00BF48
:102450001549486840F0E06040F4805048601AE058
:1024600017492068884216D100BF0D48806940F0A6
:1024700004000B4988610846806900F0040001905F
:1024800000BF00BF0120029002200390059002A926
:102490000748FEF715FE06B010BD0000002C0140F5
:1024A000001002400018014000000140000C0140F3
:1024B00000080140000400400008004000140140F2
:1024C000000C004070B504460D46164600BF94F857
:1024D0003C00012801D1022070BD012084F83C009D
:1024E00000BF36B1042E1BD0082E31D00C2E5ED189
:1024F00045E02946206800F05FFF2068806940F0D1
:102500000800216888612068806920F00400216843
:10251000886120688069296908432168886147E0EB
:102520002946206800F080FF2068806940F4006040
:10253000216888612068806920F480602168886152
:1025400020688069296940EA0120216888612FE0BC
:102550002946206800F0A6FF2068C06940F0080006
:102560002168C8612068C06920F004002168C86142
:102570002068C069296908432168C86118E02946B4
:10258000206800F0CBFF2068C06940F4006021683B
:10259000C8612068C06920F480602168C861206833
:1025A000C069296940EA01202168C86100E000BFD4
:1025B00000BF00BF002084F83C0000BF00BF8BE7D5
:1025C00010B504460CB9012010BD94F83D0028B99F
:1025D000002084F83C00204600F025F8022084F812
:1025E0003D00211D206800F073FE012084F84600A4
:1025F00000BF84F83E0001213F20015540200155D5
:102600004120015500BF00BF012084F84200432053
:102610000155442001554520015500BF012084F893
:102620003D000020D0E7704770B504460D4615B94F
:1026300094F83E000BE0042D02D13F20005D06E03F
:10264000082D02D14020005D01E04120005D0128FD
:1026500001D0012070BD1DB9022084F83E000EE0BB
:10266000042D03D102213F20015508E0082D03D19C
:1026700002214020015502E00221412001550122A2
:102680002946206800F072FE1F492068884203D066
:102690001E492068884201D1012000E0002028B1B5
:1026A0002068406C40F40040216848641649206866
:1026B000884213D01549206888420FD02068B0F1B5
:1026C000804F0BD012492068884207D011492068FA
:1026D000884203D01049206888420CD12068806865
:1026E00000F00706062E0CD02068006840F00100BC
:1026F0002168086005E02068006840F0010021685A
:1027000008600020A6E70000002C014000340140D2
:102710000004004000080040000C004030B50446B2
:102720000D4600222946206800F020FE234920683B
:10273000884203D022492068884201D1012000E06C
:10274000002090B100BF2068006A41F211110840DA
:1027500050B92068006A8910084028B92068406C88
:1027600020F400402168486400BF00BF2068006A70
:1027700041F21111084050B92068006A89100840E0
:1027800028B92068006820F001002168086000BFB7
:102790001DB9012084F83E000EE0042D03D1012173
:1027A0003F20015508E0082D03D1012140200155AB
:1027B00002E0012141200155002030BD002C0140E4
:1027C0000034014010B504460CB9012010BDA069C9
:1027D00000B100E000BF94F8390028B9002084F867
:1027E0003800204600F028F8242084F839002068BA
:1027F000C06820F400502168C860204600F0E0FE68
:102800002068006920F490402168086120684069D0
:1028100020F02A00216848612068C06840F4005018
:102820002168C8600020E063202084F8390084F823
:102830003A000020CAE7000010B586B00446002028
:10284000029003900490059023492068884241D16A
:1028500000BF2248C06940F480202049C861084672
:10286000C06900F48020019000BF00BF00BF08468F
:10287000806940F0200088610846806900F02000EF
:10288000019000BF00BF8815029002200390032032
:10289000059002A91248FEF713FC4FF40070029055
:1028A00000200390049002A90D48FEF709FC00BF28
:1028B0000C49486820F0300040F0E06040F0300003
:1028C000486000BF002201212720FEF727FE2720B5
:1028D000FEF714FE06B010BD004800400010024094
:1028E00000140140000001402DE9F84F04460E4657
:1028F000174699464FF0000A94F8390020285AD11B
:1029000006B117B90120BDE8F88F00BF94F8380070
:10291000012801D10220F6E7012084F8380000BF29
:102920000020E063212084F83900FEF779FD82461B
:10293000A784E784A068B0F5805F04D1206910B94E
:102940000025B04602E035464FF0000800BF0020E9
:1029500084F8380000BF1BE0534600228021204647
:10296000CDF8009000F0AAFE08B10320CBE745B9EE
:10297000B8F80000C0F308002168486008F10208B8
:1029800003E02878216848606D1CE08C401EE084DC
:10299000E08C0028E0D15346002240212046CDF8AB
:1029A000009000F08BFE08B10320ACE7202084F8F3
:1029B00039000020A7E70220A5E700000EB500209F
:1029C00000900190029012481249086000211148BD
:1029D0008160017301754FF46021C16100200D49D0
:1029E000486001210B480161FEF770F808B1FDF75E
:1029F00098FF102000900120019007200290694666
:102A00000448FDF7B3FF08B1FDF78BFF0EBD0000D2
:102A1000002401409400002008B500BF0E48406922
:102A200040F001000C4948610846406900F001008F
:102A3000009000BF00BF012202210B20FEF76EFDB7
:102A40000B20FEF75BFD022211460C20FEF766FD0F
:102A50000C20FEF753FD08BD0010024000B585B004
:102A60000020019002900390049000BF32488069DA
:102A700040F00400304988610846806900F0040095
:102A8000009000BF00BF00BF0846806940F008000A
:102A900088610846806900F00800009000BF00BF10
:102AA00000BF0846806940F04000886108468069A0
:102AB00000F04000009000BF00BF00BF08468069E2
:102AC00040F0200088610846806900F020000090F6
:102AD00000BF00BF01221E211848FEF79BFC012207
:102AE0004FF4C0411648FEF795FC1E2001900120CE
:102AF0000290002003900320049001A90F48FEF7E4
:102B0000DFFA48F2020001900E4802900020039084
:102B100001A90B48FEF7D4FA4FF4C0400190012000
:102B20000290002003900220049001A90448FEF7BF
:102B3000C7FA05B000BD00000010024000080140C7
:102B4000000C01400000111010B510481049086039
:102B50004FF4827048604FF480610D4881604900F5
:102B6000C1600021016141614FF400718161382130
:102B7000C16100210162416281620A21C162FFF7E5
:102B80001FF908B1FDF7CDFE10BD00000030014077
:102B90000801002000B595B000201190129013900C
:102BA00014900F9010901C2108A8FDF770FB2021B5
:102BB0006846FDF76CFB38483849086000204860DB
:102BC0000021364881604FF47A71C16000210161B3
:102BD00041618161FFF75AFA08B1FDF7A2FE4FF497
:102BE0008050119011A92D48FFF7FEFA08B1FDF7AA
:102BF00098FE2A48FFF7E4FC08B1FDF792FE00209A
:102C00000F9010900FA92548FFF7F2F908B1FDF7D2
:102C100088FE602008904FF4FA70099000200A9016
:102C20000B900C900D900E90002208A91B48FFF706
:102C300049FC08B1FDF775FE042208A91748FFF703
:102C400041FC08B1FDF76DFE082208A91348FFF703
:102C500039FC08B1FDF765FE0C2208A90F48FFF703
:102C600031FC08B1FDF75DFE00200090019002905C
:102C7000039004904FF4005005900020079069469F
:102C80000648FFF77BF908B1FDF74BFE0348FFF755
:102C90002FFB15B000BD0000002C0140A401002056
:102CA00000B58DB0002009900A900B900C90079011
:102CB00008901C216846FDF7EAFA4FF08040304941
:102CC00008600020486000212D4881604FF47A712F
:102CD000C160002101618161FFF7D8F908B1FDF7FA
:102CE00020FE4FF48050099009A92548FFF77CFA8F
:102CF00008B1FDF716FE2248FFF762FC08B1FDF7A8
:102D000010FE00200790089007A91D48FFF770F9F2
:102D100008B1FDF706FE60200090642001900020BD
:102D200002900490002269461548FFF7CBFB08B1DA
:102D3000FDF7F7FDC8200190042269461048FFF70F
:102D4000C1FB08B1FDF7EDFD4FF49670019008222C
:102D500069460B48FFF7B6FB08B1FDF7E2FD4FF4FB
:102D6000C87001900C2269460548FFF7ABFB08B11B
:102D7000FDF7D7FD0248FFF7BBFA0DB000BD00001C
:102D8000EC01002000B58DB0002009900A900B9056
:102D90000C90079008901C216846FDF778FA2C48A3
:102DA0002C4908600020486000212A4881604FF4C7
:102DB0007A71C160002101618161FFF767F908B193
:102DC000FDF7AFFD4FF48050099009A92148FFF7A6
:102DD0000BFA08B1FDF7A5FD1E48FFF7F1FB08B19E
:102DE000FDF79FFD00200790089007A91948FFF7FD
:102DF000FFF808B1FDF795FD602000904FF4FA70E0
:102E00000190002002900490002269461148FFF7CB
:102E100059FB08B1FDF785FD4FF4167001900422AF
:102E200069460C48FFF74EFB08B1FDF77AFD4FF4F9
:102E30002F700190082269460648FFF743FB08B14E
:102E4000FDF76FFD0348FFF753FA0DB000BD00001A
:102E5000000400403402002000B58DB0002009902D
:102E60000A900B900C90079008901C216846FDF783
:102E70000EFA2C482C4908600020486000212A489E
:102E800081604FF47A71C160002101618161FFF7B7
:102E9000FDF808B1FDF745FD4FF48050099009A9F0
:102EA0002148FFF7A1F908B1FDF73BFD1E48FFF7E8
:102EB00087FB08B1FDF735FD00200790089007A9B2
:102EC0001948FFF795F808B1FDF72BFD6020009039
:102ED0000020019002900490002269461248FFF7FA
:102EE000F1FA08B1FDF71DFD042269460E48FFF70F
:102EF000E9FA08B1FDF715FD082269460A48FFF70F
:102F0000E1FA08B1FDF70DFD0C2269460648FFF70E
:102F1000D9FA08B1FDF705FD0348FFF7E9F90DB04F
:102F200000BD0000000800407C02002000B58DB00C
:102F3000002009900A900B900C90079008901C219B
:102F40006846FDF7A4F9214821490860002048603F
:102F500000211F4881604FF47A71C1600021016136
:102F60008161FFF793F808B1FDF7DBFC4FF4805067
:102F7000099009A91648FFF737F908B1FDF7D1FC08
:102F80001348FFF71DFB08B1FDF7CBFC00200790AD
:102F9000089007A90E48FFF72BF808B1FDF7C1FC10
:102FA000602000904FF4FA7001900020029004908D
:102FB000002269460648FFF785FA08B1FDF7B1FC23
:102FC0000348FFF795F90DB000BD0000000C00406C
:102FD000C402002010B50B480B4908604FF4E130E3
:102FE0004860002108488160C16001610C21416195
:102FF00000218161C161FFF7E5FB08B1FDF791FC9C
:1030000010BD00000048004054030020704700003D
:103010007CB505460C46032D04DA3BA002F0FEF811
:1030200000207CBD01AA44A16068FDF773F96A46DF
:1030300041A1A068FDF76EF9009811285AD2DFE887
:1030400000F059090E13181D22272C31363B40453C
:103050004A4F540039490198096848634EE037499E
:1030600001980968886349E0344901980968C86390
:1030700044E032490198096808643FE0304901980A
:10308000096848633AE02E4901980968886335E089
:103090002B4901980968C86330E0294901980968FB
:1030A00008642BE0274901980968486326E0254910
:1030B00001980968886321E0224901980968C8637A
:1030C0001CE0204901980968086417E01E4901982E
:1030D0000968486312E01C490198096888630DE09B
:1030E000194901980968C86308E0174901980968F7
:1030F000086403E015A002F091F800BF00BF17A01C
:1031000002F08CF800208CE7706C656173652069B3
:103110006E707574207468652064757479207061B0
:1031200072616D20616E64206368616E6E656C4EC5
:10313000756D2121210A000025640000A4010020F2
:10314000EC010020340200207C0200206572726FC6
:103150007220706172616D0A000000007365742056
:10316000737563636573730A0000000008B508494E
:103170000968C9084FF47A72B1FBF2F1414300913A
:1031800000BF00BF00994A1E00920029F9D108BD76
:103190000C00002010B501F0EBFF02F055FD01F02E
:1031A000F7FF10BD00B595B028210BA8FDF76FF80B
:1031B000142106A8FDF76BF818216846FDF767F89B
:1031C00001200B9000040C9000200D9001200F9026
:1031D00002201290C10313914FF4E01114910BA837
:1031E000FEF7BCFB08B1FDF79CFB0F200690022008
:1031F0000790002008904FF48060099000200A900A
:10320000022106A8FEF774FA08B1FDF78AFB022036
:1032100000904FF4404002906846FEF7D1F908B1A3
:10322000FDF77FFB15B000BD10B500210020002286
:10323000214B5B6803F00C0121B1042906D0082959
:1032400028D107E01D4B1E4C236027E01B4B1C4C74
:10325000236023E0184B5B6803F47010164B5B6827
:1032600003F48032022303EB904022B9154B434311
:10327000134C23600DE0104B5B6803F4003323B163
:10328000104B43430E4C236003E00C4B43430C4C68
:10329000236003E0094B0A4C236000BF00BF064BCC
:1032A0005B68C3F30313084CE15C054B1B68CB4020
:1032B000034C236010BD00000010024000127A0091
:1032C0000C00002000093D00EA640008704700007F
:1032D00010B50268204B98420ED0204B98420BD07C
:1032E000B0F1804F08D01E4B984205D01D4B98423C
:1032F00002D01D4B984203D122F070024B681A4352
:10330000154B98420ED0154B98420BD0B0F1804F20
:1033100008D0134B984205D0124B984202D0124B62
:10332000984203D122F44072CB681A4322F0800302
:103330004C6943EA040202608B68C3620B688362D3
:10334000054B984202D0054B984201D10B690363AB
:103350000123436110BD0000002C014000340140F6
:103360000004004000080040000C004030B501F0AF
:103370001F05012404FA05F3046A9C430462046AED
:1033800001F01F0502FA05F52C43046230BD30B58B
:103390000C46816821F47F4142EA032525432943F5
:1033A000816030BD0A46816821F0700142F0070358
:1033B000194381607047000030B5056A25F00105AA
:1033C0000562026A4368846924F0700424F00304EF
:1033D0000D682C4322F002028D682A43104DA8424A
:1033E00000D103E00F4DA84206D100BF22F0080231
:1033F000CD682A4322F00402094DA84202D0094DAB
:10340000A84207D123F4807323F400734D692B4342
:103410008D692B43436084614D684563026230BD12
:10342000002C01400034014030B5056A25F010053C
:103430000562026A4368846924F4E04424F4407419
:103440000D6844EA052422F020028D6842EA051244
:10345000124DA84200D103E0114DA84207D100BF90
:1034600022F08002CD6842EA051222F040020B4DA4
:10347000A84202D00A4DA84209D123F4806323F464
:1034800000634D6943EA85038D6943EA8503436020
:1034900084614D688563026230BD0000002C0140EC
:1034A0000034014030B5056A25F480750562026A72
:1034B0004368C46924F0700424F003040D682C43AD
:1034C00022F400728D6842EA0522124DA84200D112
:1034D00003E0114DA84207D100BF22F40062CD687D
:1034E00042EA052222F480620A4DA84202D00A4D27
:1034F000A84209D123F4805323F400534D6943EAD1
:1035000005138D6943EA05134360C4614D68C563C3
:10351000026230BD002C01400034014030B5056A24
:1035200025F480550562036A4468C26922F4E042CA
:1035300022F440720D6842EA052223F400538D689C
:1035400043EA0533084DA84202D0084DA84204D1F1
:1035500024F480444D6944EA85144460C2614D6896
:103560000564036230BD0000002C014000340140BE
:1035700030B50B461446026A056A25F0010505625E
:10358000816921F0F00141EA041122F00A021A4394
:103590008161026230BD30B50B461446056A25F0E4
:1035A000100505628169026A21F4704141EA043123
:1035B00022F0A00242EA03128161026230BD0000E3
:1035C00070B504462168096921F44051E26811434D
:1035D000226811612269A1681143626941EA02050A
:1035E0002168C96841F20C62914329432268D16085
:1035F0002168496921F44071A2691143226851612F
:103600002D4A2168914202D1FEF74EF901E0FEF702
:103610003BF900EBC00101EB001162689200B1FBC5
:10362000F2F100EBC00202EB001263689B00B2FBF8
:10363000F3F26423B2FBF3F202EBC20303EB0212D8
:10364000A1EB8201322202EB01116422B1FBF2F103
:1036500001F0F00100EBC00202EB001263689B0076
:10366000B2FBF3F26423B2FBF3F201EB021200EBC4
:10367000C00101EB001163689B00B1FBF3F100EBAB
:10368000C00303EB00136668B600B3FBF6F36426D1
:10369000B3FBF6F303EBC30606EB0313A1EB8301C5
:1036A000322303EB01116423B1FBF3F101F00F01AD
:1036B00011442268916070BD003801402DE9F0414D
:1036C00004460D4617469846069E21E0701CF8B148
:1036D0002EB1FDF7A5FEA0EB0800B04218D9206876
:1036E000C06820F4D0702168C8602068406920F06C
:1036F000010021684861202084F8390084F83A00EC
:1037000000BF002084F8380000BF0320BDE8F0812E
:10371000206800682840A84201D1012000E0002074
:10372000B842D3D00020F1E710B54FF0FF3401F0DC
:103730001FFD144800680068C0F34010F0B1114844
:103740000068C06800F02000C0B112E04FF0FF3404
:103750000C4800680068C0F3401018B109480068C0
:103760004068C4B2601C00B904E0E1B2064801F050
:10377000CEFEEBE700BF054801F0A1FF01F008FD18
:1037800010BD000054030020A4030020B00300205B
:1037900000BFFEE70146481EB0F1807F01D3012043
:1037A0007047481E4FF0E0225061FF20044A10701D
:1037B00000204FF0E0229061072010610020EFE729
:1037C00023ED00E002480068C0F3022070470000CB
:1037D0000CED00E010B5002804DB0A07130E054AC3
:1037E000135406E00A07140E034A00F00F031B1FD0
:1037F000D45410BD00E400E018ED00E0014609B922
:1038000000207047C8B220B1C8B20E4A105C401CFC
:10381000F7E701F47F4028B10A48C1F30722805C32
:103820000930EEE701F47F0028B10648C1F30742F2
:10383000805C1130E5E7034800EB11600078193037
:10384000DFE70000E665000802E008C8121F08C1B3
:10385000002AFAD170477047002001E001C1121F11
:10386000002AFBD17047000003490868884201D054
:10387000012070470020FCE7700000202DE9F04394
:1038800089B0064688469146002400E0641C305DFD
:10389000202804D0305D092801D04445F6D324B94E
:1038A0004FF0FF3009B0BDE8F0832146304601F00B
:1038B000B7F8054615B94FF0FF30F3E7202101A80E
:1038C000FCF7E5FC01AA4146304601F013F9074632
:1038D00017B94FF0FF30E5E701A93846A847C9F806
:1038E00000000020DEE700002DE9FC5F04468B4667
:1038F00015461E46DDE90C9ADDE90E7804F11C0040
:103900004060006000BF24346560A660C4F80C907D
:10391000C4F810A02321D4E9030201F0F6FCD4E995
:10392000033C63441A1F0F4BD4E9010101F0FAFB79
:103930002060A77667760020E061C4F82080C4F894
:10394000248060612076E0652066243C0090234658
:10395000054A2146019004F14C0002F0F7F90020DD
:10396000BDE8FC9F1D590008815B00082DE9F04768
:1039700004460E4617469846DDF8209084F81190CC
:10398000607C20F0010060746662A7620020206302
:10399000C4F82C80002506E004F11C0101EBC500F1
:1039A00001F057FC6D1C012DF6DBBDE8F08710B56A
:1039B0000246002001460EE002F11C0303EBC100A9
:1039C000D0E900436360D0E90034236040600060C8
:1039D00000BF481C01460129EEDB10BD70B505464D
:1039E0000E46002403E0204600F062FB641C102C0D
:1039F000F9DB02A001F012FC002070BD616C6C20AC
:103A000050574D206368616E6E656C7320617265FE
:103A100020656E61626C65640A00000010B520A02C
:103A200001F0FCFB2148017821A001F0F7FB1F48C1
:103A3000007800F0010010B123A001F0EFFB1B485B
:103A4000007800F0020010B122A001F0E7FB174857
:103A5000007800F0040010B121A001F0DFFB134852
:103A6000007800F0080010B121A001F0D7FB0F484A
:103A7000007800F0100010B120A001F0CFFB0B483F
:103A8000007800F0800030B108480F3001681DA0B8
:103A900001F0C4FB02E01FA001F0C0FB10BD00005C
:103AA000627573206661756C743A0A0029ED00E056
:103AB0005343425F434653525F424653523A307833
:103AC00025303258200000004942555345525220BB
:103AD0000000000050524543495345525220000017
:103AE000494D505245434953455252200000000071
:103AF000554E53544B4552522000000053544B45F1
:103B0000525220005343422D3E424641523A253004
:103B100038580A000A00000070B504460D4600F04F
:103B2000D5FC002070BD000010B5024801F0AAFFCE
:103B300010BD00000004002010B51448006890F883
:103B40002900C0F3400020B9002011490870084640
:103B500010BD1048006838B180220E4801680C483A
:103B6000FCF7ACFB0A48F3E700F0C2FF20B10AA162
:103B70000748FCF7B6FB03E009A10548FCF7B1FBD9
:103B800009A10348FCF78EFB0148E1E72000002073
:103B900018090020240000206D7368200000000038
:103BA00066696E73682000003E00000010B501F0E9
:103BB0008FF910BD0549096891F8291060F341019A
:103BC000024A126882F82910704700002000002085
:103BD000024A1060024A1160704700001000002085
:103BE000140000207FB5002514491548FFF7F0FFA9
:103BF000144815490860154C0A2015214FF400722D
:103C0000134BCDE90032CDE902100023114A12A175
:103C1000204601F013FF054600231A4610A10A486A
:103C2000006801F035FD0120FFF7C4FF1CB115B994
:103C3000204601F06DFF002004B070BD3068000820
:103C4000A867000898080020200000201006002027
:103C500098060020693C0008747368656C6C00006D
:103C60007368727800000000E948006890F8290045
:103C700020F00100401CE649096881F82900FFF79F
:103C80005BFF054601F0CAFAC1E1FFF78FFF04466A
:103C9000002C00DABBE11B2C05D10120DC490968AE
:103CA00081F82800B3E1DA48006890F8280001287C
:103CB0000DD15B2C05D10220D549096881F8280077
:103CC000A5E10020D249096881F8280045E0D048E4
:103CD000006890F8280002283FD10020CC490968EC
:103CE00081F82800412C00D191E1422C00D18EE1D5
:103CF000442C11D1C6480068B0F87C0058B1C5A06A
:103D000001F08CFAC2480068B0F87C00401EC0493F
:103D10000968A1F87C007AE1432C1ED1BC480068F8
:103D2000B0F87C00BA490968B1F87A10884213DA11
:103D3000B7480068B0F87C20B54800682A30815C3C
:103D4000B5A001F06BFAB2480068B0F87C00401CE6
:103D5000AF490968A1F87C0059E10CB1FF2C00D1F2
:103D600055E1092C1FD1002503E0AAA001F056FA65
:103D70006D1CA7480068B0F87C00A842F5DCA44898
:103D800000682A3002F044FAA14800682A30FCF7A3
:103D9000A1FA80B29E490968A1F87A009C49096895
:103DA000A1F87C0033E17F2C01D0082C6ED198481B
:103DB0000068B0F87C0000B929E195480068B0F8C7
:103DC0007A00401E92490968A1F87A00904800687C
:103DD000B0F87C00401E8E490968A1F87C008C4830
:103DE0000068B0F87A008A490968B1F87C10884206
:103DF0003FDD874B1B68B3F87A30854E3668B6F8DE
:103E00007C609A1B824B1B68B3F87C305B1C804E35
:103E100036682A3699197E4B1B68B3F87C607C4B58
:103E20001B682A33F01801F04FFA00227848006826
:103E3000B0F87A10764800682A3042547448006816
:103E4000B0F87C20724800682A30111873A001F085
:103E5000E5F96F480068B0F87C5003E06DA001F010
:103E6000DDF96D1C6A480068B0F87A00A842F5DAFE
:103E70000BE06CA001F0D2F9002165480068B0F8B1
:103E80007A20634800682A308154C0E00D2C01D0AC
:103E90000A2C2BD100F02CFE012812D15C480068BE
:103EA00090F8290000F0010010B15FA001F0B6F910
:103EB00057480068B0F87A10554800682A3000F07A
:103EC00079FDFFF739FE054601F0A8F95021504869
:103ED00000682A30FCF7DBF900204D490968A1F899
:103EE0007A004B490968A1F87C0090E048480068D6
:103EF000B0F87A00502804DB002045490968A1F891
:103F00007A0043480068B0F87C0041490968B1F87C
:103F10007A10884245DA3E4B1B68B3F87A303C4E43
:103F20003668B6F87C609A1B394B1B68B3F87C6026
:103F3000374B1B682A33F118354B1B68B3F87C30BC
:103F40005B1C334E36682A36981901F0BDF93048AB
:103F50000068B0F87C202E4800682A3084542C4831
:103F6000006890F8290000F0010050B1284800686E
:103F7000B0F87C20264800682A3011182BA001F0E8
:103F80004DF923480068B0F87C5003E021A001F00F
:103F900045F96D1C1E480068B0F87A00A842F5DCAF
:103FA00012E01B480068B0F87A20194800682A30EF
:103FB00084541748006890F8290000F0010018B1F7
:103FC000214615A001F02AF9002411480068B0F834
:103FD0007A00401C0E490968A1F87A000C48006874
:103FE000B0F87C00401C0A490968A1F87C00084828
:103FF0000068B0F87A00502808DB002004490968FE
:10400000A1F87A0002490968A1F87C0000BF3CE6EB
:104010002000002008000000256300000825732010
:1040200020080000082008000A0000002573000096
:1040300010B51448006800F0020010B112A001F0A1
:10404000EDF81048006800F0804088B10D48C01EAF
:10405000007808B1FFF7E2FC0A48001F007808B1B9
:1040600000F0E4FB0748801E008808B102F0C4F9A4
:104070000448006800F0004010B109A001F0CEF83B
:1040800010BD00002CED00E06661696C656420766F
:104090006563746F722066657463680A00000000CF
:1040A0006465627567206576656E740A00000000BD
:1040B00010B50446102C59D2DFE804F0080D121791
:1040C0001C21262B30353A3F44494E5300212948C4
:1040D000FEF7AAFA4BE004212648FEF7A5FA46E0CF
:1040E00008212448FEF7A0FA41E00C212148FEF700
:1040F0009BFA3CE000212048FEF796FA37E00421C5
:104100001D48FEF791FA32E008211B48FEF78CFAB1
:104110002DE00C211848FEF787FA28E00021174807
:10412000FEF782FA23E004211448FEF77DFA1EE030
:1041300008211248FEF778FA19E000211048FEF72E
:1041400073FA14E000210F48FEF76EFA0FE0042125
:104150000C48FEF769FA0AE008210A48FEF764FAFB
:1041600005E00C210748FEF75FFA00E000BF00BF42
:1041700010BD0000A4010020EC010020340200204A
:10418000C40200207C02002010B50446102C59D235
:10419000DFE804F0080D12171C21262B30353A3FBA
:1041A00044494E5300212948FEF7B8FA4BE0042158
:1041B0002648FEF7B3FA46E008212448FEF7AEFA97
:1041C00041E00C212148FEF7A9FA3CE000212048FB
:1041D000FEF7A4FA37E004211D48FEF79FFA32E00B
:1041E00008211B48FEF79AFA2DE00C211848FEF72B
:1041F00095FA28E000211748FEF790FA23E0042101
:104200001448FEF78BFA1EE008211248FEF786FAE2
:1042100019E000211048FEF781FA14E000210F4850
:10422000FEF77CFA0FE004210C48FEF777FA0AE06B
:1042300008210A48FEF772FA05E00C210748FEF74C
:104240006DFA00E000BF00BF10BD0000A401002017
:10425000EC01002034020020C40200207C02002077
:1042600010B502A000F0DAFF002010BD48656C6CAC
:104270006F2052542D546872656164210A00000059
:1042800010B50CA000F0CAFF0F4804680CE0022231
:104290000EA12068FCF72EF800B904E00CA02168FC
:1042A00000F0BCFF00BF08340A4800688442EED327
:1042B000002010BD2D2D46756E6374696F6E204C05
:1042C0006973743A0A000000100000205F5F00006C
:1042D00025730A00140000202DE9F04704460D461E
:1042E00016461F46284601F04BF8814609F104089E
:1042F000C4F8008025726660E76000202061BDE898
:10430000F0872DE9F84F07460C464FF0000A0020D1
:104310002061E06808B1207A10B90020BDE8F88F6C
:10432000D4F800801FB945464FF0010A00E03D4631
:10433000FBF71AFF0090BAF1000F0ED1A5F1140B94
:104340009BF8100020F08000217A884204D0009869
:10435000FBF70EFF0020E1E700BF0026D4F8049031
:104360000BE02D68454501D1002507E0761C49F892
:10437000045BE068B04200D100E0F2E700BF0098C3
:10438000FBF7F6FE26612846C8E700002DE9F04F4E
:104390008FB000270FF2D409082302AA02210AA82D
:1043A000FFF79AFF4FF010084A46414632A000F04E
:1043B00035FF404600F032FC36A000F02FFF00BF72
:1043C0000AA93846FFF79DFF0746002545E002A8E9
:1043D00050F82500A0F11406FBF7C6FE8246307C9B
:1043E00020F080009DF83010884203D05046FBF743
:1043F000BFFE31E05046FBF7BBFE344604F11C0023
:104400000168814201D1012100E00021A9B904F134
:104410001C0000F046FF8346A08C23461022414634
:10442000CDE9000B21A000F0F9FE04F11C0001F021
:104430000BFF17A000F0F2FE0DE004F11C0000F0ED
:1044400030FF8346A08C234610224146CDE9000B65
:104450001AA000F0E3FE00BF6D1C0E98A842B6DC67
:10446000002FADD100200FB0BDE8F08F73656D61F6
:1044700070686F7265000000252D2A2E732076204B
:10448000202073757370656E642074687265616452
:104490000A000000202D2D2D202D2D2D2D2D2D2D10
:1044A0002D2D2D2D2D2D2D0A00000000252D2A2E1D
:1044B0002A7320253033642025643A00252D2A2EC6
:1044C0002A7320253033642025640A002DE9F04F3B
:1044D000B3B04FF000090FF21C1B082325AA0121DD
:1044E0002DA8FFF7F9FE4FF0100A5A4651464348EF
:1044F00000F094FE504600F091FB41A000F08EFECB
:1045000000BF2DA94846FFF7FCFE81464FF000088A
:1045100065E025A850F82800A0F11405FBF724FE5B
:104520003290287C20F080009DF8BC10884203D097
:104530003298FBF71DFE50E08822294603A8FBF7BE
:104540008DFE3298FBF714FE2C4694F83D0023466E
:104550001022514600903AA000F060FE94F83C0012
:1045600000F00F06012E03D138A000F057FE15E031
:10457000022E03D138A000F051FE0FE01EB939A081
:1045800000F04CFE0AE0042E03D139A000F046FEF4
:1045900004E0032E02D139A000F040FE276B00E0BA
:1045A0007F1C38782328FBD0D4E90C10791A401AE4
:1045B00064214843616BB0FBF1F00290A16BA06CE9
:1045C000CDE90001636A206BC01A636BC1181A46FB
:1045D0002DA0029B00F022FE00BF08F101083198D7
:1045E000404596DCB9F1000F8BD1002033B0BDE817
:1045F000F08F00007468726561640000486700080D
:10460000202D2D2D20202D2D2D2D2D2D2D202D2D0E
:104610002D2D2D2D2D2D2D2D202D2D2D2D2D2D2DD7
:104620002D2D2D20202D2D2D2D2D2D20202D2D2DEE
:104630002D2D2D2D2D2D2D202D2D2D0A000000008E
:10464000252D2A2E2A7320253364200020726561CF
:1046500064792020000000002073757370656E641B
:104660000000000020696E69742020200000000016
:1046700020636C6F73652020000000002072756E4F
:104680006E696E6700000000203078253038782091
:1046900030782530387820202020253032642525B8
:1046A00020202030782530387820253033640A00E7
:1046B0002DE9F04790B000270FF2B409082303AAB0
:1046C0000A210BA8FFF708FE4FF010084A464146A2
:1046D00029A000F0A3FD404600F0A0FA30A000F0B1
:1046E0009DFD00BF0BA93846FFF70BFE07460026CD
:1046F0002DE003A850F82600A0F11404FBF734FDC8
:104700008246207C20F080009DF83410884203D03F
:104710005046FBF72DFD19E05046FBF729FD2546D5
:10472000D5E90B012B461022CDE90001414625A019
:1047300000F074FD687C00F0010018B127A000F0C3
:104740006DFD02E028A000F069FD00BF761C0F9807
:10475000B042CEDC002FC5D101F070FA04462146EC
:1047600025A000F05BFD002010B0BDE8F087000040
:1047700074696D6572000000252D2A2E732020704B
:104780006572696F64696320202074696D656F7557
:104790007420202020202020666C61670A00000021
:1047A000202D2D2D2D2D2D2D2D2D2D202D2D2D2D53
:1047B0002D2D2D2D2D2D202D2D2D2D2D2D2D2D2D36
:1047C0002D2D0A00252D2A2E2A73203078253038E9
:1047D00078203078253038782000000061637469D3
:1047E00076617465640A000064656163746976616A
:1047F0007465640A0000000063757272656E74204F
:104800007469636B3A3078253038780A000000000C
:1048100003E04FF47A7001F02BF9FAE710B5044683
:1048200000F004FBFFF7F4FF10BD000010B51CA062
:1048300000F0F4FC1F4801781FA000F0EFFC1D48B9
:10484000007800F0010010B121A000F0E7FC194849
:10485000007800F0020010B120A000F0DFFC154845
:10486000007800F0080010B11FA000F0D7FC11483C
:10487000007800F0100010B11EA000F0CFFC0D4831
:10488000007800F0800030B10A480C3001681CA0AC
:1048900000F0C4FC02E01EA000F0C0FC10BD00004F
:1048A0006D656D206D616E616765206661756C7404
:1048B0003A0A000028ED00E05343425F434653525A
:1048C0005F4D4653523A3078253032582000000070
:1048D0004941434356494F4C200000004441434363
:1048E00056494F4C200000004D554E53544B4552F5
:1048F000522000004D53544B4552522000000000FE
:104900005343422D3E4D4D41523A253038580A000E
:104910000A0000002DE9F04781460026002799F89B
:10492000000028B90021084600F0A8F8BDE8F0878B
:104930001B48046827E006221AA12068FBF7DAFC6E
:1049400000B11FE0206800F106084846FBF7C2FCF2
:104950008246524641464846FBF7CCFC88B926B908
:1049600047463846FBF7B6FC06464146384601F056
:10497000C7FC0546B54200DA2E4641460BA000F0C2
:104980004DFC00BF08340A4800688442D3D327B1E5
:1049900032463946484600F058FF00BFC6E70000DF
:1049A000100000205F5F636D645F000025730A00E4
:1049B0001400002038B504460D4601E0641C6D1E4D
:1049C00020782028FAD020780928F7D00DB90020C7
:1049D00038BD6A4629462046FEF750FF08B90098C0
:1049E000F6E7204600E0401C0178202902D001783B
:1049F0000029F8D100210170214603A000F00EFC2F
:104A00004FF0FF30E4E7000025733A20636F6D6DCF
:104A1000616E64206E6F7420666F756E642E0A007E
:104A20002DE9F04106460D4600271048046815E0C0
:104A300006220FA12068FBF75DFC00B10DE02168A4
:104A4000881D2A463146FBF755FC28B9A81D216868
:104A5000085C08B9676805E000BF083406480068CC
:104A60008442E5D300BF3846BDE8F0811000002045
:104A70005F5F636D645F00001400002070B5054641
:104A80000E460EA000F0CAFB134804680DE0062293
:104A900012A12068FBF72EFC00B105E02068811D03
:104AA00010A000F0BBFB00BF08340F480068844230
:104AB000EDD30EA000F0B2FB002070BD52542D5477
:104AC0006872656164207368656C6C20636F6D6DDE
:104AD000616E64733A0A0000100000205F5F636D2E
:104AE000645F000025732000140000200A0000000D
:104AF000012070472DE9F04782460E469046544605
:104B00000025002755E003E000202070641C6D1C88
:104B10002078202802D02078092801D1B542F3D38B
:104B2000082F12D326A000F079FB4FF0000906E011
:104B300058F829102AA000F071FB09F10109B945C4
:104B4000F6D326A000F06AFB35E0B54200D332E090
:104B5000207822281CD1641C6D1C48F827407F1C3B
:104B600009E020785C2804D16078222801D1641CF7
:104B70006D1C641C6D1C2078222801D0B542F0D336
:104B8000B54200D317E000202070641C6D1C10E0BB
:104B900048F827407F1C01E0641C6D1C2078202809
:104BA00004D02078092801D0B542F5D3B54200D30E
:104BB00001E0B542A7D300BF3846BDE8F08700004A
:104BC000546F6F206D616E792061726773202120B0
:104BD0005765206F6E6C79205573653A0A000000A6
:104BE0002573200010B5FCF721FCFEF7DBFAFDF77A
:104BF00035FFFDF711FFFDF7E1FEFDF7CBFFFEF7F7
:104C00004FF8FEF7BFF8FEF727F9FEF78FF9FEF72A
:104C1000E1F9FDF799FFFBF785FE10BD10B50446DD
:104C200002E004A000F0FAFA201EA4F10104F8D179
:104C300010BD00002D0000002DE9F04F86B00D469C
:104C40009C46DDE9106401960F9B04F04008B8F122
:104C5000000F02D0DFF8708101E0DFF87081CDF83D
:104C6000008004F01008B8F1000F01D024F0010416
:104C700004F00108B8F1000F02D04FF0300801E055
:104C80004FF02008C246002704F00208B8F1000FD8
:104C900011D0002A02DA2D2752420CE004F0040859
:104CA000B8F1000F01D02B2705E004F00808B8F197
:104CB000000F00D02027002142B94FF0300B88466A
:104CC000491C0DF1080909F808B01DE01AE0E14699
:104CD000B9F10A0F08D14FF00A0BB2FBFBFE0BFB38
:104CE0001E28B2FBFBF202E002F00F08120900BF1F
:104CF000DDF8009019F808B08846491C0DF1080944
:104D000009F808B0002AE2D1B14200DD0E469B1B33
:104D100004F01108B8F1000F10D117B1002B00DD1D
:104D20005B1E06E0A84203D24FF0200880F8008006
:104D3000401CB3F10008A3F10103F3DC27B1A84242
:104D400000D207705B1E401C04F01008B8F1000F81
:104D50000AD104E0A84201D280F800A0401CB3F1BF
:104D60000008A3F10103F5DC06E0A84203D24FF0EE
:104D7000300880F80080401CB046761E8845F4DC80
:104D800008E0A84205D20DF1080818F8018080F863
:104D90000080401CB1F10008A1F1010104DDDDF843
:104DA0000480B8F1000FECD106E0A84203D24FF026
:104DB000200880F80080401CB3F10008A3F1010333
:104DC000F3DC06B0BDE8F08FF7660008E666000881
:104DD0007FB50A4C14200A214FF48062084BCDE9BC
:104DE0000032CDE902100023064A07A1204600F058
:104DF00025FE0546204600F08BFE7FBDA00D00205D
:104E0000A00900201D4800086D61696E00000000C7
:104E100010B5044C02E020688047241D02488442FB
:104E2000F9D310BD906700089867000810B5044CCE
:104E300002E020688047241D02488442F9D310BD57
:104E400098670008A467000810B5FBF78DF90446C1
:104E500004480088401C00B2024908802046FBF745
:104E600087F910BD6000002010B5FBF77DF90446FE
:104E70000C480088401E00B20A4908800846B0F974
:104E8000000000280ADC002008802046FBF770F9AB
:104E90000548006828B100F067FB02E02046FBF7F8
:104EA00067F910BD600000206400002010B5FEF717
:104EB000BBF9064800684FF47A71B0FBF1F4204664
:104EC000FEF768FCFFF7A4FF10BD00000C000020F7
:104ED00008B50020009004E04FF0FF31054800F0D5
:104EE00011FC6946044800F0CEFA0128F4D19DF87F
:104EF000000008BDB0030020A403002070B50446E4
:104F0000204600F099FC85B2FF232A46214602483C
:104F1000FDF7EAFC70BD00005403002070B50546A3
:104F20002C1D3048006838B128462E49096888474A
:104F3000064606B970BD00BF2BA0E16B00F06EF90C
:104F40002DA0216A00F06AF92FA0616A00F066F9CD
:104F500031A0A16A00F062F933A0E16A00F05EF9C5
:104F600035A0216800F05AF937A0616800F056F9C1
:104F700039A0A16800F052F93BA0E16800F04EF9B9
:104F80003DA0216900F04AF93FA0616900F046F9AF
:104F900041A0A16900F042F943A0E16900F03EF9A7
:104FA00045A0216B00F03AF947A0616B00F036F99B
:104FB00049A0A16B00F032F9287800F0040048B154
:104FC00000F07EFD0646314647A000F027F9FFF7C6
:104FD0007DFA02E04CA000F021F9FFF729F800BFAC
:104FE000FEE70000900000207073723A20307825B0
:104FF0003038780A000000007230303A20307825CE
:105000003038780A000000007230313A20307825BC
:105010003038780A000000007230323A20307825AB
:105020003038780A000000007230333A203078259A
:105030003038780A000000007230343A2030782589
:105040003038780A000000007230353A2030782578
:105050003038780A000000007230363A2030782567
:105060003038780A000000007230373A2030782556
:105070003038780A000000007230383A2030782545
:105080003038780A000000007230393A2030782534
:105090003038780A000000007231303A203078252C
:1050A0003038780A000000007231313A203078251B
:1050B0003038780A000000007231323A203078250A
:1050C0003038780A00000000206C723A20307825D1
:1050D0003038780A000000002070633A20307825CC
:1050E0003038780A000000006861726420666175DB
:1050F0006C74206F6E207468726561643A20257349
:105100000D0A0D0A00000000686172642066617576
:105110006C74206F6E2068616E646C65720D0A0D90
:105120000A000000F0B504460D461646301D20F07A
:10513000070040380146002203E00C4F41F822707E
:10514000521C102AF9D30D624FF0000CC1F824C094
:10515000C1F828C0C1F82CC0C1F830C04B638C63C3
:105160004FF0807CC1F83CC0F0BD0000EFBEADDE6A
:1051700010B5FAF7F9FF044604480078401C0349CB
:1051800008702046FAF7F4FF10BD00002C00002044
:1051900010B5FAF7E9FF044604480078401E0349B9
:1051A00008702046FAF7E4FF10BD00002C00002034
:1051B0002DE9F04105460C469046204600F0BEFC25
:1051C000B8F1000F03D0B8F1010F23D105E004F1CD
:1051D0001C01284600F04EF81CE02E680FE0A6F1F6
:1051E0001C0794F83D0097F83D10884206DA04F158
:1051F0001C0107F11C0000F03DF802E03668AE42E9
:10520000EDD100BFAE4204D104F11C01284600F0EC
:1052100031F800BF00BF0020BDE8F0810FB438B501
:1052200005A800907F210848009B049A00F03AFEF0
:1052300004467F2C00D97F240348FFF75FFE00203F
:10524000009038BC5DF814FB300F00204060006017
:1052500070474060006070470268516002680A60F1
:105260000160486070470268516002680A6001602E
:10527000486070474268116042684A604160086057
:10528000704701460868884201D10120704700201C
:10529000FCE701460868884201D1012070470020E0
:1052A000FCE7014600200A4601E01268401C136832
:1052B0008B42FAD17047D0E900215160D0E9001249
:1052C000116040600060704770B50C46014623468F
:1052D0008B4210D29D188D420DD91144134405E024
:1052E0005D1E2B462E784D1E29462E70151EA2F1EE
:1052F0000102F5D108E003E013F8015B01F8015B5E
:10530000151EA2F10102F7D170BDF0B50C4605469D
:10531000E6B2042A15D300F0030797B9014646EA1E
:10532000062343EA034304E008C108C108C108C1D9
:10533000103A102AF8D201E008C1121F042AFBD249
:105340000D4601E005F8016B171EA2F10102F9D12B
:10535000F0BD70B5044600202074FAF705FF05463D
:1053600004F11400D0E900215160D0E9001211606D
:105370004060006000BF2846FAF7FAFE70BD0000EA
:10538000024600210AE0074800EB01100078904235
:1053900003D1044800EB01107047491C0329F2DBDC
:1053A0000020F9E7300000202DE9F04704460D46C3
:1053B000904600262846FFF7E3FF0746FFF744FD27
:1053C0007E6802E0A6F114003668381D8642F9D1E5
:1053D000FFF74AFD45F08000207410224146204628
:1053E00000F033FAFAF7C0FE8146381D04F11401CB
:1053F0000268516002680A600160486000BF484668
:10540000FAF7B6FEBDE8F0870146087C00F08000A0
:1054100008B1012070470020FCE7014600BF8888E2
:105420004008CA88B0EB520F0BD1087900F0010098
:105430008A7902F00102904201D1002002E00120AD
:1054400000E0022020B1012804D0022805D105E0A7
:1054500000207047B1F90800FBE700BFC88840088A
:105460008A88B0EB520F05DDC88840088A88A0EB17
:105470005200EEE788884008CA88A0EB5200B1F9D4
:105480000820101AE5E710B503460C461846FFF74A
:10549000C4FF08B9002010BD9988186800EB5100BE
:1054A00000782070B3F90800401E9988B0EB510FC6
:1054B0000BD11879C043998860F3000199800021CD
:1054C000988861F34F00988007E09888012101EBEC
:1054D0005000998860F34F0199800120DBE710B5F7
:1054E0000024838864F34F035C089BB264F30003D9
:1054F00083800024C38864F34F035C089BB264F389
:105500000003C380016022F00303038110BD10B5C6
:1055100003460C461846FFF780FFB3F90810081A37
:1055200000D110BDD988186800EB51000470B3F9A0
:105530000800401ED988B0EB510F0BD19879C043B9
:10554000D98860F30001D9800021D88861F34F0029
:10555000D88007E0D888012101EB5000D98860F39A
:105560004F01D9800120DCE72DE9F041FAF7FCFD7D
:1055700007461848008838BB17480068FEF73EF910
:10558000461E164850F83600A0F11C041448006866
:10559000844218D013490E701148056804601248FF
:1055A000007850B904F1240105F12400FAF7E3FD75
:1055B0003846FAF7DDFDBDE8F08104F1240105F17C
:1055C0002400FAF7D8FD00BF3846FAF7D1FD00BF36
:1055D000F1E70000600000206C000020B00F002008
:1055E00064000020680000202C00002070B50446F4
:1055F000FAF7BAFD054614F83C0F20F00F0040F012
:105600000100207062783C3C0A4B03EBC20004F1BD
:105610001C014268116042684A604160086000BF36
:105620000549206C09680843034908602846FAF7D1
:105630009FFD70BDB00F00206C00002070B50446C7
:10564000FAF792FD054604F11C00D0E900215160F3
:10565000D0E9001211604060006000BF94F83D1076
:10566000094A02EBC1000168814201D1012100E039
:10567000002129B10548216C00688843034908606E
:105680002846FAF775FD70BDB00F00206C000020B1
:105690002DE9F04104460D4616461F462A460221D2
:1056A0002046FFF781FE00BF04F11C00406000604F
:1056B00000BF00BFA68467740020BDE8F0812DE91B
:1056C000F04104460025FAF74FFD074604F11C009F
:1056D000FFF7D7FD48B900BFE069A0F11C063046CE
:1056E00000F0D0F900BF012502E0A08C401CA0848E
:1056F0003846FAF73DFD012D01D1FFF735FF0020B7
:10570000BDE8F08173B50546FAF72EFD0646A88C74
:10571000002806DDA88C401EA8843046FAF728FD34
:1057200028E0019828B93046FAF722FD6FF0010011
:105730007CBD00F0C5F904460020A0636A7C2146C8
:1057400005F11C00FFF734FD0198002809DD01AACE
:10575000002104F14C0000F0CDFA04F14C0000F0FF
:105760000DFB3046FAF704FDFFF7FEFEA06B08B113
:10577000A06BDDE70020DBE710B5044600212046E2
:10578000FFF7C0FF10BD000008B509A0FFF746FDF8
:105790000AA0FFF743FD12A003230122194600903F
:1057A00012A0FFF73BFD19A0FFF738FD08BD000070
:1057B0000A205C207C202F0A000000002D2052547B
:1057C000202D2020202020546872656164204F70B5
:1057D00065726174696E672053797374656D0A0030
:1057E000466562202031203230323100202F207C6B
:1057F000205C202020202025642E25642E25642076
:105800006275696C642025730A0000002032303014
:1058100036202D203230313920436F70797269671C
:1058200068742062792072742D74687265616420D6
:105830007465616D0A00000001460A4600E0521CD2
:1058400010780028FBD1501A704770B50346A2B1FA
:1058500018460C4600BF14F8016B00F8016B3EB906
:1058600002E0002500F8015B551E2A1EF9D102E076
:10587000551E2A1EEFD100BF00BF184670BD0000A4
:1058800010B500200B490880002405E00A4901EB0F
:10589000C400FFF7DBFC641C202CF7DB1F2007494A
:1058A0000870002006490860064908600648FFF7AE
:1058B000CDFC10BD60000020B00F0020680000206B
:1058C000640000206C0000207000002070B50848C3
:1058D0000068FDF793FF451E064850F83500A0F11B
:1058E0001C040548046004F12400FAF772FC70BD42
:1058F0006C000020B00F00206400002010B50024D0
:1059000005E0044901EBC400FFF7A3FC641C002C74
:10591000F7D010BD780000207047000070B5134824
:105920000468FAF721FC05462046FFF787FE0420AD
:1059300084F83C0004F14C0000F0F8F92046FFF731
:1059400063FD012806D1D4F8800018B92046FFF77E
:1059500000FD04E004F11C010548FFF77DFC28462A
:10596000FAF706FCFFF700FE70BD0000640000209F
:105970007000002001E000F001F8FCE770B536E0AF
:10598000FAF7F2FB0546FDF76FFF40B31B480068CE
:10599000A0F11C0404F11C00D0E900215160D0E901
:1059A000001211604060006000BFFFF74DFAD4F8AC
:1059B000800018B12046D4F8801088472046FFF7B1
:1059C00023FD012808D12046FFF7C3FCFFF74CFA5E
:1059D0002846FAF7CDFB70BDFFF746FA03E02846EC
:1059E000FAF7C6FBF7E72846FAF7C2FB00BFFDF758
:1059F0003BFF0028C4D100BFEDE70000700000208D
:105A00001FB520201F218022074BCDE90032CDE9B0
:105A100002100023054A06A1074800F00FF80648C7
:105A200000F076F81FBD0000B00E00207559000888
:105A30007469646C65000000280E00202DE9FF5F8A
:105A400005460C4616461F46DDE910ABDDE90E891A
:105A5000224601212846FFF7A7FC3B463246214655
:105A600028468DE8000FFDF73FFF04B0BDE8F09F2A
:105A700070B50446204600F0C5F80546284600F0FB
:105A800025F870BD70B5044694F83C0000F00F0096
:105A9000022802D04FF0FF3070BDFAF765FB0546D3
:105AA00004F11C00FFF707FC04F14C0000F0E2F9E0
:105AB0002846FAF75DFB2046FFF798FD0020EBE74C
:105AC00001480068704700006400002031B5FAF713
:105AD0004BFB05460D480468204600F02FF86A4647
